:020000040800F2
:100000004876032461040008D1AB0108016E0108A1
:10001000C9AB010801230008692F02080000000095
:10002000000000000000000000000000D1BC01083A
:10003000817A000800000000F1B40108E9C001085D
:100040007B0400087B0400087B0400087B04000894
:100050007B0400087B0400087B0400087B04000884
:100060007B0400087B0400087B040008596F00082B
:100070007B040008696F0008796F0008896F000829
:10008000996F0008A96F00087B040008317B000805
:10009000517B0008417B0008617B00087B0400085D
:1000A00029C3010849C301087B04000839C30108BA
:1000B00059C30108A9C301087B0400087B04000898
:1000C0007B0400087B0400087B0400087B04000814
:1000D0007B040008D1E6010829EC010811EF0108B2
:1000E0007B0400087B040008000000007B0400087B
:1000F0007B0400087B0400087B040008B96F00083B
:100100007B0400087B0400087B0400087B040008D3
:1001100039CE010849CE010831C401087B0400082A
:10012000C96F0008D96F00087B0400087B04000831
:100130007B0400087B0400087B0400087B040008A3
:1001400000000000000000000000000000000000AF
:100150007B0400087B0400087B0400087B04000883
:100160007B0400087B0400087B0400087B04000873
:100170007B04000891AE01087B0400080000000029
:100180007B0400087B0400087B0400087B04000853
:100190007B0400087B0400087B0400087B04000843
:1001A0007B0400087B0400087B04000800000000BA
:1001B0007B0400087B0400087B0400087B04000823
:1001C0007B0400087B040008000000000000000021
:1001D00000000000000000007B0400080000000098
:1001E000000000000000000000000000000000000F
:1001F00000000000000000007B0400087B040008F1
:100200007B0400087B040008000000007B04000859
:100210007B0400087B0400087B0400087B040008C2
:100220007B040008000000007B04000800000000C0
:100230007B0400087B040008000000007B04000829
:100240007B0400087B0400087B0400087B04000892
:100250007B0400087B0400087B0400087B04000882
:100260007B0400087B0400087B0400087B04000872
:100270007B0400087B0400087B04000800000000E9
:100280007B0400087B0400087B0400087B04000852
:10029000000000007B0400087B0400080000000050
:1002A000000000007B0400087B0400087B040008B9
:1002B0007B0400087B0400087B0400087B04000822
:1002C0007B0400087B0400087B04000800F002F8AF
:1002D00000F0B6F80AA090E8000C82448344AAF12A
:1002E0000107DA4501D100F0ABF8AFF2090EBAE828
:1002F0000F0013F0010F18BFFB1A43F0010318475A
:10030000E8A0020018A102000A444FF0000C10F807
:10031000013B13F0070408BF10F8014B1D1108BF83
:1003200010F8015B641E05D010F8016B641E01F823
:10033000016BF9D113F0080F1EBF10F8014BAD1C73
:100340000C1B09D16D1E58BF01F801CBFAD505E091
:1003500014F8016B01F8016B6D1EF9D59142D6D3EB
:10036000704700000023002400250026103A28BF13
:1003700078C1FBD8520728BF30C148BF0B60704717
:100380006E2900F03983702900F07B84662929F0FA
:100390009080652929F08D80672929F08A8061295C
:1003A00029F0898003681B0A28BF41F08001692970
:1003B00000F0E682642900F0E382752900F0E08213
:1003C0006F2900F00984782900F04784E92900F0BA
:1003D000A383E42900F0A083F52900F09D83EF2991
:1003E00000F00684F82900F046840368DB0928BF82
:1003F00041F08001632901F06981732901F06E8168
:10040000E32901F07981F32901F07E810020704712
:100410001FB529F041F89DE8030000F00DFA01F046
:10042000D1F904000020002129F020F8401C606070
:100430000020002129F004F8E0601FBD10B510BDB8
:1004400001F092F91146FFF7E3FF23F0E5FE01F01A
:100450006FFA03B4FFF7F2FF03BC01F09FFA00004C
:100460000948804709480047FEE7FEE7FEE7FEE748
:10047000FEE7FEE7FEE7FEE7FEE7FEE70448054984
:10048000054A064B70470000E9C10108CD0200088B
:10049000485600244876032448E6012448E601240F
:1004A00070B5064600F0ACF9056806F10B0020F0C7
:1004B0000704B4429CBF002070BD2B466A68BAB1E5
:1004C0001068A04210D304F1080188423CBF506874
:1004D000586007D35168101941601168091B016009
:1004E00058601460101D70BD13465268002AE7D191
:1004F0002146284600F08CF90028DED170BD70B589
:100500000446051F00F07CF90068002C14BF446805
:1005100070BD002C18BFAC423CBF20466468F8D3C5
:1005200001680A18AA4218BF456003D12A68054627
:100530001144016028684119A1421CBF6C6070BD64
:100540006168696021680844286070BD53EA020C44
:1005500000F069802DE9F04B4FF00006002B1FBF23
:10056000B3FA83F503FA05F424FA05F65E4012BFE8
:100570001643B2FA82F502FA05F4C5F120051EBF52
:1005800022FA05FC44EA0C04203556EA044C4FEAF2
:10059000144418BF641C4FF000084FF0000990424B
:1005A00071EB030C39D3002919BFB1FA81F701FAB5
:1005B00007F6B0FA80F700FA07F6C7F120071EBF6A
:1005C00020FA07FC46EA0C062037B6FBF4FCA7EB42
:1005D0000507103F07F01F0BCBF120062CFA06F69B
:1005E0000CFA0BFB44BFB3460026202FA4BF5E4687
:1005F0004FF0000B5BEA060C08BF4FF0010B19EB44
:100600000B0948EB0608ABFB027C06FB02CC0BFB9C
:1006100003CCC01B71EB0C01C1E70B4602464146FF
:100620004846BDE8F08B13B5084318BF4FF0FF30C4
:100630000146AFF30080BDE81C4070470FB41CB505
:10064000084B06AA7B4469460090059800F0EDF936
:1006500004460020694600F0FBF920461CBC5DF80A
:1006600014FB000009040000032A40F2308010F05F
:10067000030C00F0158011F8013BBCF1020F62443D
:1006800098BF11F801CB00F8013B38BF11F8013BCE
:10069000A2F1040298BF00F801CB38BF00F8013B7B
:1006A00011F0030300F02580083AC0F0088051F8EB
:1006B000043B083A51F804CBA0E80810F5E7121DF6
:1006C0005CBF51F8043B40F8043BAFF30080D20715
:1006D00024BF11F8013B11F801CB48BF11F8012BE1
:1006E00024BF00F8013B00F801CB48BF00F8012B04
:1006F000704710B5203AC0F00B80B1E81850A0E860
:100700001850B1E81850A0E81850203ABFF4F5AFDF
:100710005FEA027C24BFB1E81850A0E8185044BF3B
:1007200018C918C0BDE810405FEA827C24BF51F8A8
:10073000043B40F8043B08BF7047D20728BF31F89C
:10074000023B48BF11F8012B28BF20F8023B48BFED
:1007500000F8012B704702F0FF0343EA032242EA4C
:10076000024200F024B84FF000020429C0F01280C9
:1007700010F0030C00F01B80CCF1040CBCF1020F54
:1007800018BF00F8012BA8BF20F8022BA1EB0C0129
:1007900000F00DB85FEAC17C24BF00F8012B00F81F
:1007A000012B48BF00F8012B70474FF0000200B545
:1007B000134694469646203922BFA0E80C50A0E884
:1007C0000C50B1F12001BFF4F7AF090728BFA0E832
:1007D0000C5048BF0CC05DF804EB890028BF40F8FE
:1007E000042B08BF704748BF20F8022B11F0804F40
:1007F00018BF00F8012B7047704770477047000022
:10080000004870477807002470477047704770476A
:1008100038B504460A4600206946AFF30080002838
:1008200008BF38BD02460099204600F001FB0120B8
:1008300038BD012000F090BFF8B5AFF30080054649
:1008400000200C46102000BF0646A819A0420DD972
:10085000324669460020AFF30080070008BF00F071
:100860007BFF0098A04218BF0546C419FFF7C8FFD8
:1008700005600746F01D20F007004619284600F0E5
:100880000AF8B44208BFF8BDA21B31463868BDE87B
:10089000F84000F0CDBA00210160C0E901107047B6
:1008A0001020704710B500F0BFFA006810BD10B5F9
:1008B000044600F0B9FA046010BD70B504468569BD
:1008C0000068C10601D5302600E02026C00707D009
:1008D00070BDD4E9012130469047206A401C206257
:1008E0006D1EF6D570BD70B5044685690078C007E9
:1008F00007D170BDD4E9012120209047206A401C17
:1009000020626D1EF6D570BD09684A0501D540B25A
:100910007047C905FCD500B2704709684A0501D582
:10092000C0B27047C905FCD580B2704770B50C469F
:100930000546012A05D02878800600D5EA690023FB
:1009400002E0012305E05B1C934202D2E05C002838
:10095000F9D1A869E618C01AA861286A1844286263
:100960002846FFF7AAFF04E0D5E9012114F8010B9E
:100970009047B442F8D32846FFF7B5FF70BD00009A
:100980002DE9F0410646002410687529314616A568
:1009900010D0FFF7B9FF002802DA404213A507E0A4
:1009A00031688A0701D512A502E0490704D511A5CF
:1009B000012401E0FFF7B1FF00210A2206F124071C
:1009C00009E0B0FBF2FCB0FBF2F302FB1C0030309C
:1009D00078541846491C0028F3D123462A4630464D
:1009E000BDE8F04100F083BA000000002D000000D7
:1009F0002B0000002000000011680268006A530507
:100A000001D508700AE0D30501D5088006E0130679
:100A100003D5C217C1E9000200E008600120704759
:100A200001694A1C02610878704700B58FB0CDE9B2
:100A300001310021059105497944CDE903101146A2
:100A4000684600F029F90FB000BD0000E5FFFFFF88
:100A50000A6802F8010B0A60704700002DE9FF5F89
:100A600015468A460446DFF8AC80F8440027D8E9EA
:100A700000103E46CDE9001010E03AF816106A4624
:100A800002A800F045FE411C07D02178890603D555
:100A9000E269391891420DD80744761C2078800607
:100AA00002D5E069B84205DDAE42E6DB3AF8160051
:100AB0000028E2D1A069C01BA0612046FFF7FDFE1F
:100AC000D8E90010CDE90010002017E03AF818101E
:100AD0006A4602A800F01CFEB0F1FF3F81460BD031
:100AE00000250DF1080B05E0D4E901211BF80500F4
:100AF00090476D1C4D45F7D308F10100B042804688
:100B0000E4DB206A384420622046FFF7ECFEBDE8B3
:100B1000FF9F00004E8A02002DE9F0418046D21D61
:100B200022F007020025D2E90002F52915A614D00B
:100B3000011E72F1000106DA0023D0EB030063EB23
:100B4000020211A608E0D8F800108B0701D50FA605
:100B500002E0490701D50EA601251146002408F13F
:100B6000240704E000F07EF930323A55641C50EA64
:100B70000102F7D12B46324621464046BDE8F041FE
:100B800000F0B5B9000000002D0000002B000000AF
:100B90002000000030B4002100F1240408E002F03D
:100BA0000705D208303542EA4372DB086554491C18
:100BB00052EA0305F3D10468002310A2250708D5E3
:100BC00004F020040C4304D0C46901230CA2641E69
:100BD000C46130BC00F08BB910B5044621461068E2
:100BE000FFF79BFE02462046BDE810400023D1E7F8
:100BF000D21D22F00701D1E90023CBE7000000005D
:100C000030000000F0B40D460188090502D5214CE2
:100C10007C4402E01F4C7C440E34002100F1240689
:100C200008E002F00F071209E75D42EA03721B09B0
:100C30007754491C52EA0307F3D1027800231207C4
:100C400004D5702D06D009B1022311342246F0BC20
:100C500000F04DB901231034F8E770B504460D4695
:100C600021461068FFF759FE024629462046BDE896
:100C700070400023C6E7D21D22F00703D3E900230A
:100C8000C0E70368126843F0200303600823C361D0
:100C90000023B7E7B08802002DE9F05F89460446DB
:100CA0004FF0000ADFF874B1FB44C0F820A02046E2
:100CB000E1688847002874D0252806D0D4E90121AE
:100CC0009047206A401C2062F1E700265F462046DC
:100CD000E16888472028054607DB312D05D27819C1
:100CE00010F8200C08B10643F1E7B00701D526F053
:100CF0000406C4F81CA00027C4F818A02A2D09D0A7
:100D0000284628F063FB38B304EB8708303DC8F869
:100D1000185019E059F8041B204604EB8702916132
:100D2000E1688847012F054618D1E069002820DADC
:100D300026F020061DE0D8F8180000EB800005EB37
:100D400040003038C8F818002046E168884705465A
:100D500028F03CFB0028EED1012F0AD02E2D08D11F
:100D60002046E16888477F1C0546022F46F0200692
:100D7000C4DBA069002803DA404246F00106A06106
:100D8000F00701D026F010066C2D0BD0682D09D08D
:100D90004C2D39D06A2D35D0742D35D07A2D33D0E5
:100DA00016E038E0E1682F4620468847B8420546FD
:100DB00009D16C2F26D04FF48060E16806432046AD
:100DC0008847054604E06C2F1AD04FF48070064324
:100DD0000DB3A5F14100192802D8203546F400666C
:100DE0004A462946204626604E46FFF7C9FA80B19A
:100DF00001280BD0F61D26F0070000F1080956E780
:100E00004020E4E78020D8E70020D6E706F1040977
:100E10004DE7284652E7206ABDE8F09F408802006F
:100E2000004870477007002400487047700700248E
:100E3000034640688C46002818BF88423CBF0346E2
:100E40004068F8D318681844884207D00CF10300B2
:100E500020F00700001D411A521A0146081D0A60C1
:100E6000FFF74DBB30B5B0F10A0271F100034FEA54
:100E7000900E4EEA817EB0EB0E0061EB91014FEADD
:100E8000101E4EEA017E10EB0E0041EB11114FEAED
:100E9000102E4EEA016E10EB0E0041EB11214FEACD
:100EA000104E4EEA014E10EB0E0041EB114140187E
:100EB00041F100014FEAD00040EA41704FEAD10110
:100EC0004FEA810444EA907410EB800544EB01047E
:100ED0006D1944EB0404521BA3414FF0000348BFBB
:100EE0000A3200D530BD401C41F1000130BD2DE972
:100EF000F0470D4699469246044600F124080168E1
:100F0000880604D5E06921F01001216000E001208D
:100F1000A84201DD471B00E00027A1697A1902EB16
:100F20000900081AA0612078C00602D42046FFF705
:100F3000C4FC002608E0D4E901211AF80600904715
:100F4000206A401C761C20624E45F4DB2078C006E7
:100F50000AD52046FFF7B1FC06E0D4E90121302094
:100F60009047206A401C2062381EA7F10107F4DC7C
:100F700007E0D4E9012118F805009047206A401CD9
:100F80002062281EA5F10105F3DC2046FFF7ABFC2B
:100F90002078000602D50220BDE8F0870120FBE79B
:100FA0002DE9FF4F0C461E464FF0FF378BB0D2E9BC
:100FB0000001DDF860800A908A46C1F30A5505B940
:100FC0003D46002108464FF00000BAF1000F00F442
:100FD000400005DA00EB80004FF4400101EA5000C8
:100FE0004FEA9059B9F1010F00DDB9460A9850EA6D
:100FF0004A000ED044F61050A5F2FF3545432F1499
:10100000B8F1000F1ED07542291E1EDDC9F1000285
:101010001CE0B8F1010F4FF0000001D0302103E0D7
:10102000F24305E02154401CB042FBDB3046002275
:10103000002121540B99C1F80880C1E900200FB0AC
:10104000BDE8F08FBD1B6D1CDEE74A4600DA694241
:1010500006A800F0FBFB06AB93E8070003AB83E8B0
:10106000070050460A9927F0F6F88DE80700A0F52A
:1010700000501F3800900398002D0ADD42F21F0136
:101080004A460844002303A90390684627F05FFB03
:1010900009E0A0F500504A461F38002303A9039039
:1010A000684627F069FB8DE807000004000C03D0B8
:1010B0004FF0FF30410800E01046B8F1000F03D0B8
:1010C0000022009215461EE0751E05D4FFF7CAFEE9
:1010D000303262556D1EF9D5B3460122084302D065
:1010E00000227F1C04E02078302801D100227F1EDE
:1010F000002A099784D01DE0112D07DAFFF7B2FE10
:10110000303262556D1C50EA0102F5D1084302D01D
:101110000098C8B10EE00021681E05E0235C625C07
:1011200063542254401E491C8142F7DBAB46A81B86
:10113000401E0990002004F80B000B98099AC0F893
:101140000880C0E9002B7AE711264FF0000857E726
:101150002DE9F04F88460446D21D22F0070191B0D8
:10116000D1E90001CDE90A0127F03DFC02460B98C8
:10117000C00F01D02D2007E02068810701D52B206A
:1011800002E0202101EAC000032A099001D0072AC9
:1011900005DB03464146204600F018FB0BE12078B2
:1011A000800601D5E06900E00620B8F1650F8146B0
:1011B00006D0B8F1660F18D0B8F1670F70D131E0E2
:1011C0000020B9F1110F009001DB112301E009F1BA
:1011D00001030AAA01A90CA8FFF7E2FEDDE90C70E1
:1011E000002609F10105834647E001204B460090A7
:1011F0004FF000470AAA01A90CA8FFF7D1FEDDE9CC
:101200000DB00C995D46002610B909F101000D18CA
:10121000B9EB050003D4C0F1FF3609F10105A5EBD8
:1012200009002BE0B9F1010F01DA4FF001090020AC
:10123000B9F1110F0090484601DD112300E003468B
:101240000AAA01A90CA8FFF7ABFEDDE90C704D4618
:1012500000268346207800070AD4AB4500DA5D46B5
:1012600001A8012D04DD411911F8011C302907D016
:101270004F4502DA17F1040F04DA012082460FE02D
:101280006D1EEEE7002F02DCED1B3E4403E0781CF0
:10129000A84200DD7D1CB81B00F1010A4FF0004799
:1012A0002078000703D4AA4501DB4FF0FF3A002164
:1012B000B7F1004F0DF143088DF8431024D0022000
:1012C0002B23002F01DA7F422D230A21021EA0F1D9
:1012D000010000DC5FB197FBF1FC97FBF1F201FB31
:1012E0001C7C17460CF1300C08F801CDEEE7A8F194
:1012F000010003702188090501D5452100E0652121
:10130000A0F1010800F8011C09980FA9A1EB08073A
:10131000FF1D00B10120411901EBEA70A1693844B9
:10132000081A401EA0612078C00602D42046FFF7AC
:10133000C4FA099828B1D4E901219047206A401CD9
:1013400020622078C00622D52046FFF7B6FA1EE0BC
:10135000002E04DBB34502DD01A8805D00E03020F3
:10136000D4E901219047206A401C2062761CAAF132
:1013700001005FEA000A0AD100F024FAC06801689F
:10138000405CD4E901219047206A401C2062281E5D
:10139000A5F10105DCDC07E0D4E9012118F8010B17
:1013A0009047206A401C2062381EA7F10107F3DC39
:1013B0002046FFF798FA032011B041E62DE9F04FDF
:1013C00004460D46D21D22F0070089B0D0E90097EF
:1013D0004846394627F007FB0246F80F01D02D2377
:1013E00007E02068810701D52B2302E0202101EAD4
:1013F000C0038DF820300BB1012000E00020032A4B
:10140000824601D0072A04DB2946204600F0DEF997
:101410003FE12078800601D40D2500E0E569C7F39F
:101420000A560D2D49DA00214FEA175B08464FF0A6
:101430000000002F00F4400007DA00EB80004FF4BA
:10144000400100EBD07001EA60008115012901DD47
:101450004FF0FF3100224FEA850CBCF1180F06D384
:101460001346ACF118004FF08052C24003E04FF435
:10147000801323FA0CF30CF10C0CBCF1200F04D3F5
:10148000ACF1200C09FA0CF001E007FA0CF000298D
:101490004FF0004801DD18B90FE00ED140450CD3E4
:1014A00019EB02095F4121B9404502D19F4329EA66
:1014B0000209BBEB175F00D0761C2088000502D51F
:1014C0007B48784402E07A487844193808AA3023E7
:1014D00002F80A30037C0AF10101002E0AF1020A27
:1014E00053546A4602DC4FF0300101E04FF0310105
:1014F0004FF001088DF8001002D0A6F2FF3603E08D
:1015000059EA470100D06B4E002D02DC2178090713
:1015100004D54FF002082E218DF80110C446002199
:101520000BE0C7F303433F01C35C491C6D1E02F887
:101530000830052908F1010801DA002DF1DC00214D
:101540000CE000EB1973491C1B786D1E082902F88A
:1015500008304FEA091908F1010801DA002DF0DC22
:1015600021688B0602D516E0A8F10108E04505DDEB
:1015700002EB080313F8013C302BF5D0B8F1000F53
:1015800009DD02EB080313F8013C2E2B03D10907F8
:1015900001D4A8F10108002D05DD3E2102F8081054
:1015A0006D1E08F10108407C002E02F8080008F1C9
:1015B000010804DA2D20764202F8080002E02B2010
:1015C00002F808000A214FF47A70864208F10108F7
:1015D0000BDB96FBF0F3303302F8083096FBF0F3A8
:1015E00008F1010800FB136601E0642E0CDB6420A7
:1015F00096FBF0F3303302F8083096FBF0F308F175
:10160000010800FB136601E00A2E06DB96FBF1F0F1
:10161000303002F8080008F1010896FBF1F001FBF8
:101620001060303002F80800A16908F1010808EBE9
:10163000050202EB0A00081AA0612078C00602D455
:101640002046FFF73AF9216A08AE01EB0A00206252
:1016500004E0D4E9012116F8010B9047BAF1010A20
:10166000F7D22078C00602D52046FFF726F96E464D
:1016700009E016F8010B3E280FD0D4E9012190476C
:10168000206A401C2062B8F10108F2D22046FFF720
:101690002AF909B00320BDE8F08F206A28442062AF
:1016A00003E0D4E90121302090476D1EEBD3F8E729
:1016B000ED80020002FCFFFF10B5436913B1AFF3E8
:1016C000008001E0FFF732F9012010BD127800F12F
:1016D00024010A7000224A700122EDE711684FF0E0
:1016E000FF32E9E710B5436913B1AFF3008001E0C1
:1016F000FFF7B4F9012010BD128800F124018284A3
:101700000022C2840122EDE711684FF0FF32E9E7C1
:101710002DE9F04116460C46054600F04BF80368EB
:1017200093F80101012807D0FF2C12D8185D80B171
:1017300001202C70BDE8F081D3F807013246214624
:1017400003F20713C7182846BC46BDE8F041002342
:1017500060474FF0FF30EDE710B500F0F7F8BDE857
:10176000104000F0EEB870477546FFF759FBAE46E3
:1017700005006946534620F00700854618B020B59D
:10178000FEF77CFEBDE820404FF000064FF000075A
:101790004FF000084FF0000BAC46ACE8C009ACE8D5
:1017A000C009ACE8C009ACE8C00921F007018D46CA
:1017B0007047000010B500F005F8001D10BD00BF17
:1017C000AD7C020000487047900700242DE9F041ED
:1017D0001F46044603260168072A01F4006004DB63
:1017E00008B116A505E016A503E008B115A500E0AF
:1017F00015A521F010002060A069C01EA0610FB1E6
:10180000401EA0612046FFF758F84FB1D4E90121EE
:1018100038469047206A401C2062C01C206206E0C7
:10182000206AFAE7D4E9012115F8010B9047761EEA
:10183000F8D22046FFF757F8BDE8F0814E414E0040
:101840006E616E00494E4600696E66002DE9F047F4
:10185000814616468AB0354878440DC88DE80D009B
:1018600032487844801C03AC0DC884E80D0041F672
:101870009B300844372190FBF1F290FBF1F5A5F184
:10188000800501FB12041B3C02D56442012000E0EC
:101890000020DFF898A080460027FA44AAF1BE0A8B
:1018A0000EE0E0070AD03246684607EB4701012305
:1018B0000AEB810126F060FF8DE8070064107F1CB1
:1018C000002CEED1194F7F44AE3F19E0E80715D048
:1018D00007EB04100DF1180A90E80E008AE80E00DC
:1018E000C068F04201D1981908903246012306A938
:1018F00003A826F041FF03AB83E807006D10641CCA
:10190000002DE3D14FF0010332466946B8F1000FD4
:1019100003A802D026F01BFF01E026F02DFFC9E945
:101920000001C9F808200AB0BDE8F087E87D020090
:1019300010B50446AFF300802046BDE81040FEF726
:1019400088BD002801D000F029B8704710B50128E3
:1019500005D0002103A000F027F8012010BD09A147
:10196000F8E7000053494752544D454D3A204F7512
:1019700074206F662068656170206D656D6F727987
:10198000000000003A2048656170206D656D6F723F
:101990007920636F72727570746564000149182054
:1019A000ABBEFEE72600020070B505460C460A20D5
:1019B00000E06D1C00F052F835B128780028F8D10D
:1019C00002E0641C00F04AF814B120780028F8D135
:1019D000BDE870400A2000F041B80000000000009F
:1019E00030B44FF0013C50F8042BCCFA52F451F8CB
:1019F000043BD51A20D1FCB950F8042BCCFA52F490
:101A000051F8043BD51A17D1B4B950F8042BCCFACD
:101A100052F451F8043BD51A0ED16CB950F8042B8E
:101A2000CCFA52F451F8043BD51A05D1002CDAD087
:101A300030BC4FF00000704729BAB1FA81F111F0C3
:101A40001801D1F120008440F2D1CA40CB4012F0FD
:101A5000FF0213F0FF0330BCD01A704708B5694687
:101A60008DF800000320ABBE08BD000000000000A0
:101A700080B584B003900398006842F20001C4F27C
:101A80000201884209D0FFE70398006842F2001182
:101A9000C4F20201884209D1FFE742F20830C4F2E1
:101AA0000200006810F4403F09D129E046F20830F6
:101AB000C5F60200006810F4403F21D0FFE711F0A6
:101AC000D7FA029003984068B0F5803F01900AD0A1
:101AD000FFE70198B0F5003F05D0FFE70198B0F5AA
:101AE000403F07D00AE00398C0880299B1FBF0F0AC
:101AF000029004E002988008029000E0FFE75FE0B7
:101B00004FF4002000210FF073FA02900398406810
:101B1000B0F5802F009032D0FFE70098B0F5002F8D
:101B20002DD0FFE70098B0F5402F28D0FFE70098B0
:101B3000B0F5801F23D0FFE70098B0F5A01F1ED09E
:101B4000FFE70098B0F5C01F19D0FFE70098B0F587
:101B5000E01F1FD0FFE70098B0F5001F1ED0FFE781
:101B60000098B0F5101F1DD0FFE70098B0F5201FBA
:101B70001CD0FFE70098B0F5301F1BD01EE0039883
:101B800040686FF0010101EA50400299B1FBF0F0AA
:101B9000029014E002980009029010E002984009B7
:101BA00002900CE002988009029008E00298C009B7
:101BB000029004E00298000A029000E0FFE7FFE7CD
:101BC000029840080290029845F61061C0F25F0149
:101BD000884209D8FFE703980068806820F44070C5
:101BE0000399096888602EE002984BF62041C0F204
:101BF000BE0188420AD8FFE7039800688068012187
:101C000061F309200399096888601BE0029847F690
:101C10004001C0F27D1188420AD8FFE703980068AE
:101C20008068022161F3092003990968886008E04F
:101C300003980068806840F44070039909688860E0
:101C4000FFE7FFE7FFE704B080BD000000000000F1
:101C500080B584B002900298006817F061FC009093
:101C60000298006817F064FC00284DD0FFE7009848
:101C7000002849D1FFE702980068806800F00D0055
:101C8000012809D1FFE70298006817F0EDFB0298E0
:101C90000068032101600DE00298016E41F010011F
:101CA00001660298416E41F00101416601208DF804
:101CB0000F002DE00CF050FB0190FFE70298006848
:101CC0008068C00700281ED0FFE70CF045FB019993
:101CD000401A032816D3FFE7029800688068C007FF
:101CE00000280ED0FFE70298016E41F01001016656
:101CF0000298416E41F00101416601208DF80F000C
:101D000006E0FFE7DAE7FFE700208DF80F00FFE7C6
:101D10009DF80F0004B080BD80B59EB01D9064207A
:101D200022F04AFC00210F91B2EE040A9FEDE61A60
:101D30009FEDE62AF7EE001A9FEDE53AF0EE410A34
:101D40008DED0D1AB0EE421AB0EE432A0C9015F04C
:101D500057FC42F60400C2F2004040F24471C2F265
:101D600000419DED0D0A21F053FFFFE7752015F0AE
:101D70002FF945F2C441C2F20041088015F0E0F8A5
:101D800015F002F915F0CCF940F2D470C2F200401F
:101D9000B0F9001000EE101AB8EEC00A40F2DC7183
:101DA000C2F2004191ED001A30EE010A40F6D44231
:101DB000C2F2004292ED001A20EE010A40F2E873EE
:101DC000C2F2004383ED000AB0F902C000EE10CA6F
:101DD000B8EEC00A91ED011A30EE010A92ED001A38
:101DE00020EE010A83ED010AB0F9040000EE100AAA
:101DF000B8EEC00A91ED021A30EE010A92ED001A17
:101E000020EE010A83ED020A40F62C20C2F20040C7
:101E1000B0F9001000EE101AB8EEC00A40F24011FE
:101E2000C2F2004191ED001A30EE010A92ED011A62
:101E300020EE010A40F6342CC2F2004C8CED000A70
:101E4000B0F902E000EE10EAB8EEC00A91ED011A16
:101E500030EE010A92ED011A20EE010A8CED010A22
:101E6000B0F9040000EE100AB8EEC00A91ED021AB3
:101E700030EE010A92ED011A20EE010A8CED020A01
:101E80009CED001A9CED010A9CED022AB1EE400A7D
:101E9000F1EE420A93ED002AD3ED011A93ED023AD6
:101EA000F1EE422A40F28010C2F200400B90B0EEF8
:101EB000432A0A93CDF824C018F08AFC099890EDC3
:101EC000000A90ED011A90ED022AF1EE400A0A99FB
:101ED00091ED000AD1ED011AD1ED022AB1EE400ACE
:101EE0009FEDBD3A8DED080AB0EE410AB0EE421A00
:101EF0009DED082A15F008FD0B9841681091816846
:101F00001191C16812910168139140F69C41C2F28F
:101F100000410A1D01F1080321F0A6FF14A90B9846
:101F200021F08AFE0A9890ED000A90ED011A90EDDA
:101F3000022A9DED143A9DED154A9DED165A22EEAA
:101F4000442A01EE432A00EE052A40F69041C2F2EF
:101F5000004181ED002A90ED000A90ED011A90ED0C
:101F6000022A9DED173A9DED184A9DED195A22EE71
:101F7000442A01EE432A00EE052A81ED012A90ED64
:101F8000000A90ED011A90ED022A9DED1A3A9DED9E
:101F90001B4A9DED1C5A22EE042A01EE032A10EE84
:101FA000052A9FED8E0A32EE000A81ED020A0A68C8
:101FB00040F6D413C2F200431A604A685A60896836
:101FC0009960416840F2FC72C2F20042116090EDEB
:101FD000000A099991ED021A21EE011A9FED802A5B
:101FE00011EE020A82ED010AD0F808C0C2F808C05A
:101FF00040F6285CC2F2004C0CF5A87E104619464B
:1020000072460793CDF818C000F0F6F8069890EDE8
:102010006A0A9FED741A80EE010A9FED732A20EE82
:10202000020A8DED051A8DED042A21F02BF8079890
:1020300090ED011A069991ED6A2A9DED053A82EE1E
:10204000032A9DED044A22EE042A8DED030AB0EE28
:10205000420A8DED021A21F079FB079890ED001AE3
:1020600020EE010A9DED031A9DED022A01EE420ABF
:102070008DED0E0A40F2FC11C2F2004191ED000A12
:102080009FED5A2AB4EE420AF1EE10FA07DDFFE79F
:1020900040F24870C2F200400021018035E040F279
:1020A000FC10C2F2004090ED000A9FED511AB4EE10
:1020B000410AF1EE10FA0DDAFFE740F24870C2F281
:1020C00000401B2101801FE06F12833A20BC3E4C70
:1020D0000000000040F2FC10C2F2004090ED000A47
:1020E0009FED431A31EE400AB1EE041AB3EE0B2A0B
:1020F00000EE012ABCEEC20A10EE100A40F248714E
:10210000C2F200410880FFE7FFE740F24870C2F2E8
:102110000040008843F6EC11C2F2004109684863B0
:1021200042F6C810C2F2004090ED000A42F6CC1010
:10213000C2F2004090ED001A30EE010AB0EE001A33
:1021400080EE010A40F64420C2F20040416881ED71
:10215000000A9DED0E0A42F60401C2F20041019010
:102160000846009121F030FD00984168019A93687B
:1021700019600F99B1F57A7F07D9FFE740F644203F
:10218000C2F2004016F068FEFFE70F9801300F9092
:1021900042F66800C2F200400068002818D0FFE74D
:1021A00040F6D410C2F2004090ED010A42F6A400BD
:1021B000C2F2004090ED001A31EE000A80ED000AF4
:1021C00044F6F840C2F20040016801310160FFE7C7
:1021D000012022F0F1F9C9E56F12833AC3F51C41E1
:1021E00068221CBE00003443D00F4940000020424A
:1021F00000000C420000000083B0029001910092A8
:10220000009890ED000A90ED011A90ED022A90EDF1
:10221000033AB6EE004AB0EE445A02EE425A03EEDA
:10222000435A029821EE026A00EE436A90ED007A6A
:10223000D0ED010AD0ED021A26EE206A05EE076AFB
:1022400020EE020A01EE030A00EE216A36EE060ACB
:10225000019880ED000A009890ED000A90ED011AB7
:1022600090ED022A90ED033A20EE035A01EE025A55
:102270000298B0EE446A01EE416A03EE436A90EDC3
:10228000007AD0ED010AD0ED021A26EE206A05EEA2
:10229000076A22EE032A00EE412A02EE216A36EE98
:1022A000060A019880ED010A009890ED000A90ED71
:1022B000011A90ED022A90ED033A21EE035A00EE46
:1022C000425A029820EE010A02EE030A90ED003A0B
:1022D00090ED016A90ED027A20EE060A05EE030AFF
:1022E00001EE414A02EE424A04EE070A30EE000ACD
:1022F000019880ED020A03B0704700000000000062
:10230000FFE7FEE70000000084B0134684468DF826
:102310000F000291ADF806209DF80F00014623281A
:1023200000911DD80099DFE801F012131415161B57
:102330001B1B1B1B1B1B1B1B1B1B1B1B1B1B1B1BED
:102340001B1B1B1B1B1B1B1B1B1B1718191A08E035
:1023500007E006E005E004E003E002E001E000E061
:10236000FFE7002004B07047002070470000000025
:1023700080B584B042F6A020C2F2004041F6E07180
:10238000C2F200410022039002921DF039FB41F29B
:10239000E071C2F20041039A019010461DF010FB5B
:1023A00002990090084604B080BD000000000000C3
:1023B00080B586B005900491059942F6A020C2F23E
:1023C000004003901DF0FCFA0399029008461DF0AE
:1023D00097FA00210190084606B080BD0000000079
:1023E00083B01346029001918DF8032000208DF8F0
:1023F00002009DF9020003B07047000000000000D9
:1024000083B08DED020A019000919DED020A20EE4D
:10241000001A21EE002A009840F24031C2F2004139
:1024200001EB8010019900EB011090ED003A90ED66
:10243000014A90ED025A90ED036A21EE041A02EE71
:10244000031A00EE051A31EE060A03B070470000C9
:1024500084B002A9024681ED000A8DF807009DF8BC
:1024600007000028009116D1FFE7009890ED000AC0
:102470009FED331A80EE010A9FED301A30EE010A0B
:1024800040F29011C2F2004191ED001A30EE010AC3
:1024900080ED010A4BE09DF80700012812D1FFE70B
:1024A000009890ED000A9FED261A80EE010A40F296
:1024B0009411C2F2004191ED001A31EE000A80ED54
:1024C000010A34E09DF80700022816D1FFE70098C2
:1024D00090ED000A9FED181A80EE010A9FED171A81
:1024E00030EE010A40F29811C2F2004191ED001A5B
:1024F00030EE010A80ED010A19E09DF8070003287B
:1025000012D1FFE7009890ED000A9FED0B1A80EEC4
:10251000010A40F29C11C2F2004191ED001A30EE26
:10252000010A80ED010A02E000200390FFE7009815
:1025300090ED010A04B070479A991141D00F4940BB
:102540009A9911C10000000080B582B0019000F09E
:102550000FF8FFE704F094FA03F0AAFE01F018F870
:10256000012022F029F80090F4E7000000000000AC
:1025700080B588B042F60000C2F200400021016040
:1025800042F6F000C2F20040016042F65400C2F28E
:102590000040016042F62810C2F20040016045F29E
:1025A000F050C2F20040016042F6CC10C2F200408E
:1025B000016043F6B860C2F20040016042F2FC7074
:1025C000C2F20040016042F6EC00C2F2004001603D
:1025D00042F65000C2F20040016042F62410C2F2FE
:1025E0000040016045F2EC50C2F20040016042F64A
:1025F000C810C2F20040016043F6B460C2F200406D
:10260000016040F60870C2F200404CF6CD42C3F6BD
:10261000CC52026043F69460C2F200404CF28F222A
:10262000C3F6F552026043F69860C2F200404CF2E5
:102630008F22C3F67562026042F2E070C2F200407F
:1026400049F69A12C3F61962026045F23860C2F286
:102650000040016045F23460C2F20040016044F283
:102660004420C2F200404EF68532C3F691720260F9
:1026700044F69450C2F2004040F23872C2F2004276
:102680009FED9A0A8DED070A06911146059221F0F9
:10269000BFFA44F6C850C2F200409DED070A059902
:1026A00021F0B6FA44F68050C2F200409DED070AD0
:1026B000059921F0ADFA44F6B450C2F200409DED08
:1026C000070A059921F0A4FA42F67810C2F20040F8
:1026D00040F23C71C2F200419DED070A049121F0E5
:1026E00097FA42F6A410C2F200409DED070A049941
:1026F00021F08EFA42F66410C2F200409DED070A06
:10270000049921F085FA42F69010C2F200409DED46
:10271000070A049921F07CFA42F62400C2F2004034
:102720009DED070A059921F073FA44F6D840C2F2EC
:10273000004044F25821C2F200419DED070A21F009
:1027400067FA45F2DC50C2F200409DED070A069997
:1027500021F05EFA42F6B810C2F200409DED070A81
:10276000069921F055FA45F20060C2F2004044F2A9
:102770005421C2F200419DED070A039121F048FA6D
:1027800042F6D410C2F2004044F25021C2F200419D
:102790009DED070A029121F03BFA45F21060C2F26A
:1027A00000409DED070A039921F032FA42F6E41049
:1027B000C2F200409DED070A029921F029FA42F683
:1027C0001400C2F2004044F24C21C2F200419DEDDF
:1027D000070A019121F01CFA42F6F400C2F200400F
:1027E0009DED070A019921F013FA42F63400C2F276
:1027F00000409DED070A019921F00AFA42F6041003
:10280000C2F200409DED070A019921F001FA43F65A
:10281000D460C2F200409DED070A019921F0F8F959
:1028200043F6E460C2F200409DED070A019921F0F1
:10283000EFF942F63C10C2F200409DED070A019903
:1028400021F0E6F942F64C10C2F200409DED070A75
:10285000019921F0DDF940F6F810C2F200409DED3B
:10286000070A019921F0D4F940F61020C2F2004085
:102870009DED070A019921F0CBF945F2B440C2F26F
:10288000004040F24071C2F200419DED070A009104
:1028900021F0BEF945F22460C2F200409DED070A26
:1028A000009921F0B5F942F61C20C2F2004040F236
:1028B0002472C2F200429FED0E0ADFED0E0A069965
:1028C00018F0EAFD44F62450C2F2004040F254727F
:1028D000C2F200429FED080ADFED080A069918F0DF
:1028E000DBFD14F091FA08B080BD00BF6F12833A8F
:1028F000000096430000C8420060EA4600409C4544
:1029000080B5DEB040F62C00C2F2004090ED010A26
:102910009FEDA81A20EE010A42F6F811C2F200411A
:1029200081ED000A90ED010A20EE010A42F6FC1149
:10293000C2F2004181ED000A90ED010A45F23461D6
:10294000C2F2004191ED001A9FED9B2A00EE021A9F
:1029500081ED001A90ED010A45F23860C2F20040A4
:1029600090ED001A00EE021A80ED001A42F6C8102F
:10297000C2F2004090ED000A42F6D411C2F20041CA
:102980005D90084621F020F942F6CC10C2F20040DA
:1029900090ED000A42F6E411C2F200415C90084654
:1029A00021F012F95D9890ED000AB7EEC00AB0EE82
:1029B000C00B5C9991ED001AB7EEC11AB0EEC11BC5
:1029C000B4EE410BF1EE10FA1FDDFFE742F6CC103A
:1029D000C2F2004090ED000A40F6B040C2F2004062
:1029E00090ED031A9FED752A81EE021A9FED742A6D
:1029F00021EE021A9FED732A01EE020A42F6B4108C
:102A0000C2F2004080ED000A1EE042F6C810C2F299
:102A1000004090ED000A40F6B040C2F2004090ED58
:102A2000031A9FED692A81EE021A9FED652A21EEB5
:102A3000021A9FED642A01EE020A42F6B410C2F2B5
:102A4000004080ED000AFFE742F6D410C2F20040D9
:102A5000406800EE100A42F6E410C2F200404068FE
:102A600001EE100A30EE010AB0EE001A80EE010A03
:102A700042F6B410C2F2004080ED000A42F6042192
:102A8000C2F200414968016045F23461C2F200417E
:102A900091ED000A45F23861C2F2004191ED002A41
:102AA00030EE020A80EE010A45F22061C2F20041D6
:102AB00081ED000A42F6F811C2F2004191ED000AE0
:102AC00042F6FC11C2F2004191ED002A30EE020AFA
:102AD00080EE010A42F6F411C2F2004181ED000AD3
:102AE00090ED000A45F2EC51C2F2004191ED002A4E
:102AF0009FED313A00EE032A81ED002A90ED000AA5
:102B000045F2F050C2F2004090ED002A00EE032A98
:102B100080ED002A91ED000A45F20061C2F2004109
:102B20005B9008468DED5A1A599121F04DF85B984B
:102B300090ED000A45F21061C2F20041084658913A
:102B400021F042F85998416800EE101A58994A68E5
:102B500001EE102A30EE010A9DED5A1A80EE010AAC
:102B600045F2CC42C2F2004282ED000A42F6B002C7
:102B7000C2F2004292ED000AB4EE410AF1EE10FA00
:102B80000FDCFFE742F6AC00C2F2004090ED000A15
:102B9000B0EE001AB4EE410AF1EE10FA40F3FD80F7
:102BA000FFE740F62C00C2F200400078052800F054
:102BB000F4800DE09A99193E6F12833A0000344375
:102BC000D00F49408FC2753E000034C3DA0F494030
:102BD00041F28C30C2F200400021016045F2EC501D
:102BE000C2F20040016045F23460C2F20040016070
:102BF00043F68C60C2F2004090ED000A012257902B
:102C0000104656915592FFF7FBFB42F2FC70C2F260
:102C1000004090ED001A579991ED002A8DED540A6D
:102C2000B0EE420A559A5390104611468DED521A55
:102C3000FFF7E6FB42F6EC00C2F2004090ED001A0E
:102C400020EE010A9DED541A9DED522A01EE020A72
:102C500043F69061C2F2004191ED002A02228DED0F
:102C6000510AB0EE420A569B509018464F911146B9
:102C70004E92FFF7C5FB42F60000C2F2004090ED15
:102C8000001A9DED512A00EE012A4F9991ED000A9C
:102C90000322569B4D90184611468DED4C2A4B92BF
:102CA000FFF7AEFB42F6F000C2F2004090ED001AD2
:102CB0009DED4C2A00EE012AB1EE420A41F2B431F8
:102CC000C2F2004181ED000A41F2A031C2F200419E
:102CD000569A0A6045F2F051C2F200410A6045F28C
:102CE0003861C2F200410A6045F20061C2F200415F
:102CF0004A6045F21061C2F200414A60579991ED75
:102D0000000A4E9B4A9018461146FFF779FB5398EC
:102D100090ED001A579991ED002A8DED490AB0EE19
:102D2000420A4E9855998DED481AFFF769FB509865
:102D300090ED001A20EE010A9DED491A9DED482AFA
:102D400001EE020A4F9991ED002A8DED470AB0EE8F
:102D5000420A4B984E99FFF753FB4D9890ED001A9D
:102D60009DED472A00EE012A4F9991ED000A4B98FC
:102D70004B998DED462AFFF743FB4A9890ED001AD8
:102D80009DED462A00EE012AB1EE420A41F2B83129
:102D9000C2F2004181ED000A6FE343F68C60C2F29B
:102DA000004090ED000A0021459008464491FFF74D
:102DB00027FB42F2FC70C2F2004090ED001A4599E8
:102DC00091ED002A01228DED430AB0EE420A449BA8
:102DD0004290184611468DED411A4092FFF710FBC4
:102DE00042F6EC00C2F2004090ED001A20EE010A1B
:102DF0009DED431A9DED412A01EE020A459991EDA0
:102E0000002A04228DED3F0AB0EE420A449B3E9018
:102E1000184611463D92FFF7F3FA45F2CC40C2F254
:102E2000004090ED001A45F22061C2F2004191EDA0
:102E3000002A31EE021A9DED3F2A00EE012A459A42
:102E400092ED000A0523DDF810C13C9060463B91ED
:102E500019468DED3A2A3993FFF7D2FA42F6B410AB
:102E6000C2F2004090ED001A42F6F411C2F20041A5
:102E700091ED002A31EE021A9DED3A2A00EE012A68
:102E8000459A92ED000A0823DDF810C1389060469B
:102E9000379119468DED362A3593FFF7B1FA42F690
:102EA0005000C2F2004090ED001A9DED362A00EE6F
:102EB000012A459991ED000A0922449B3490184655
:102EC00011468DED332A3292FFF79AFA42F624101A
:102ED000C2F2004090ED001A9DED332A00EE012A67
:102EE00043F69061C2F2004191ED000A0222449B38
:102EF00031901846309111468DED2F2A2E92FFF712
:102F00007FFA42F60000C2F2004090ED001A9DEDFB
:102F10002F2A00EE012A309991ED000A0322449BEA
:102F20002D90184611468DED2C2A2B92FFF768FA4A
:102F300042F6F000C2F2004090ED001A9DED2C2AFE
:102F400000EE012A309991ED000A0622449B2A9056
:102F5000184611468DED292A2892FFF751FA44F6BA
:102F60006C50C2F2004090ED001A9DED292A00EE4F
:102F7000012A309991ED000A0722449B27901846B8
:102F800011468DED262A2592FFF73AFA40F6B04019
:102F9000C2F2004090ED031A1FEDF82A81EE021AEA
:102FA00040F62C01C2F2004191ED033A1FEDF94ABF
:102FB00001EE043A9DED261A00EE031AB1EE410A25
:102FC00041F28C32C2F2004282ED000A459A92ED43
:102FD000000A409B24901846DDF810C123916146F9
:102FE0008DED222A8DED214AFFF70AFA429890EDE5
:102FF000001A459991ED002A8DED200AB0EE420AA3
:10300000409840998DED1F1AFFF7FAF93E9890ED20
:10301000001A20EE010A9DED201A9DED1F2A01EEF7
:10302000020A459991ED002A8DED1E0AB0EE420A82
:1030300040983D99FFF7E4F93C9890ED001A3B99D0
:1030400091ED002A31EE021A9DED1E2A00EE012AB2
:10305000459A92ED000A409839998DED1D2AFFF7A7
:10306000CFF9389890ED001A379991ED002A31EE9A
:10307000021A9DED1D2A00EE012A459A92ED000AE2
:10308000409835998DED1C2AFFF7BAF9349890EDE8
:10309000001A9DED1C2A00EE012A459991ED000AC7
:1030A000409832998DED1B2AFFF7AAF9319890EDDF
:1030B000001A9DED1B2A00EE012A309991ED000ABD
:1030C00040982E998DED1A2AFFF79AF92D9890EDD8
:1030D000001A9DED1A2A00EE012A309991ED000A9E
:1030E00040982B998DED192AFFF78AF92A9890EDCF
:1030F000001A9DED192A00EE012A309991ED000A7F
:10310000409828998DED182AFFF77AF9279890EDC5
:10311000001A9DED182A00EE012A309991ED000A5F
:10312000409825998DED172AFFF76AF9249890EDBC
:10313000031A9DED222A81EE021A239991ED033A9A
:103140009DED214A01EE043A9DED171A00EE031A97
:10315000B1EE410A41F2B432C2F2004282ED000AFD
:10316000459A92ED000A2E984499FFF749F9429842
:1031700090ED001A459991ED002A8DED160AB0EEFA
:10318000420A2E9840998DED151AFFF739F93E98AD
:1031900090ED001A20EE010A9DED161A9DED152AFC
:1031A00001EE020A459991ED002A8DED140AB0EE68
:1031B000420A2E983D99FFF723F93C9890ED001AAA
:1031C0003B9991ED002A31EE021A9DED142A00EE92
:1031D000012A459A92ED000A2E9839998DED132A0D
:1031E000FFF70EF9389890ED001A379991ED002A03
:1031F00031EE021A9DED132A00EE012A309A92ED6B
:10320000000A2E9835998DED122AFFF7F9F842F64B
:103210005400C2F2004090ED001A9DED122A00EE1B
:10322000012A309991ED000A2E9A11901046329998
:103230008DED102AFFF7E4F842F62810C2F20040A4
:1032400090ED001A9DED102A00EE012A309991EDC3
:10325000000A2E9A0F90104611468DED0E2AFFF7A8
:10326000CFF82D9890ED001A9DED0E2A00EE012A60
:10327000309991ED000A2E982B998DED0D2AFFF7CC
:10328000BFF82A9890ED001A9DED0D2A00EE012A54
:10329000309991ED000A2E9828998DED0C2AFFF7B0
:1032A000AFF8279890ED001A9DED0C2A00EE012A48
:1032B000309991ED000A2E9825998DED0B2AFFF794
:1032C0009FF8249890ED031A9DED222A81EE021AB0
:1032D000239991ED033A9DED214A01EE043A9DEDCB
:1032E0000B1A00EE031AB1EE410A41F2A032C2F20B
:1032F000004282ED000A459A92ED000A2B9844990B
:10330000FFF77EF8429890ED001A459991ED002A5A
:103310008DED0A0AB0EE420A2B9840998DED091AFC
:10332000FFF76EF83E9890ED001A20EE010A9DED31
:103330000A1A9DED092A01EE020A459991ED002A2B
:103340008DED080AB0EE420A2B983D99FFF758F828
:103350003C9890ED001A3B9991ED002A31EE021A4B
:103360009DED082A00EE012A459A92ED000A2B985D
:1033700039998DED072AFFF743F8389890ED001A38
:10338000379991ED002A31EE021A9DED072A00EEE1
:10339000012A309A92ED000A2B9835998DED062A74
:1033A000FFF72EF8119890ED001A9DED062A00EE19
:1033B000012A309991ED000A2B9832998DED052A5A
:1033C000FFF71EF80F9890ED001A9DED052A00EE0C
:1033D000012A309991ED000A2B982E998DED042A3F
:1033E000FFF70EF82D9890ED001A9DED042A00EEDF
:1033F000012A309991ED000A2B982B998DED032A23
:10340000FEF7FEFF2A9890ED001A9DED032A00EECC
:10341000012A309991ED000A2B9828998DED022A06
:10342000FEF7EEFF279890ED001A9DED022A00EEC0
:10343000012A309991ED000A2B9825998DED012AEA
:10344000FEF7DEFF249890ED031A9DED222A81EE0F
:10345000021A239991ED033A9DED214A01EE043AB7
:103460009DED011A00EE031AB1EE410A41F2B832A5
:10347000C2F2004282ED000AFFE743F66860C2F242
:10348000004090ED000A40F6F010C2F2004090EDCE
:10349000001A43F67061C2F2004191ED002A41F238
:1034A000B431C2F2004191ED003A22EE032A00EE5F
:1034B000012A9FED360A82EE001A41F29032C2F2E2
:1034C000004282ED001A43F67862C2F2004292EDA9
:1034D000001A90ED002A43F68060C2F2004090EDA1
:1034E000003A91ED004A23EE043A01EE023A83EEEF
:1034F000001A41F29830C2F2004080ED001A43F603
:103500006C60C2F2004090ED001A40F6F410C2F276
:10351000004090ED002A43F67461C2F2004191ED43
:10352000003A41F2B831C2F2004191ED004A23EE77
:10353000043A01EE023AB1EE431A81EE001A41F26A
:10354000A432C2F2004282ED001A43F67C62C2F25B
:10355000004292ED001A90ED002A43F68460C2F218
:10356000004090ED003A91ED004A23EE043A01EE5E
:10357000023AB1EE431A81EE000A41F2AC30C2F2D7
:10358000004080ED000A5EB080BD00BF9A991141F5
:1035900010B58CB042F69800C2F2004001680131CB
:1035A000016045F2EC50C2F2004090ED000A45F295
:1035B000F050C2F2004090ED001A30EE010AB0EE79
:1035C000001A80EE010A8DED0B0A42F6C810C2F215
:1035D000004090ED000A42F6CC10C2F2004090ED9F
:1035E000002A30EE020A80EE010A8DED090A0998E0
:1035F00042F64801C2F20041086045F23460C2F26E
:10360000004090ED000A45F23860C2F2004090EDB3
:10361000002A30EE020A80EE010A8DED0A0A42F617
:103620009400C2F20040007800283BD1FFE701F08F
:10363000D3FD00F0EDFD45F2C840C2F2004000218C
:10364000016040F6AC40C2F20040016040F6A84084
:10365000C2F20040016041F29030C2F200400160CD
:1036600041F29830C2F20040016041F2A430C2F24F
:103670000040016041F2AC30C2F20040016043F60C
:103680005060C2F200400022C4F28C22026043F675
:103690004C60C2F20040026043F65460C2F2004047
:1036A0000160FFE742F69400C2F200400078012872
:1036B00048D1FFE741F29030C2F2004049F69A113A
:1036C000C3F69961016041F29830C2F2004049F6B8
:1036D0009A12CBF69962026041F2A430C2F2004025
:1036E000026041F2AC30C2F20040016040F2307042
:1036F000C2F2004090ED000A42F6CC11C2F2004145
:1037000091ED001A20EE410A40F6AC41C2F20041B0
:1037100081ED000A90ED000A42F6C810C2F20040A6
:1037200090ED001A20EE010A40F6A840C2F20040D7
:1037300080ED000A43F65860C2F200400168013192
:103740000160FFE742F69400C2F2004000780228D0
:1037500040F09F80FFE79DED0B0A9DED0A1A30EEC9
:10376000010A40F2AC10C2F2004090ED001A9DED4B
:10377000092A40F62C00C2F2004090ED013A32EEE8
:10378000032A40F2A810C2F2004090ED003A22EE67
:10379000032A00EE012A44F60050C2F2004080EDF8
:1037A000002A45F2C841C2F2004100220A6040F2FC
:1037B000A412C2F2004292ED000A42F65403C2F291
:1037C000004393ED001A90ED002A31EE021A40F208
:1037D000A01CC2F2004C9CED002A42F6281EC2F248
:1037E000004E9EED003A22EE032A00EE012A91EDF2
:1037F000000A32EE000A40F6AC44C2F2004484ED06
:10380000000A92ED000A93ED001A90ED002A31EEC5
:10381000021A20EE410A9CED001A9EED002A01EEEC
:10382000420A91ED001A30EE010A40F6A840C2F2B9
:10383000004080ED000A41F29030C2F2004049F6AB
:103840009A11C3F69961016041F29830C2F20040CA
:1038500049F69A12CBF69962026041F2A430C2F2A4
:103860000040026041F2AC30C2F20040016043F619
:103870005860C2F2004001680131016040F6B0407A
:10388000C2F20040006840F6EC11C2F2004108604C
:10389000FFE742F69400C2F200400078032809D006
:1038A000FFE742F69400C2F2004000780528C0F21B
:1038B0006B83FFE742F69400C2F2004000780528CF
:1038C00008DBFFE743F65860C2F2004001680131AF
:1038D0000160FFE742F69400C2F20040007803283E
:1038E00008D0FFE742F69400C2F2004000780728B3
:1038F00021D1FFE740F23470C2F2004090ED000A9F
:10390000B7EEC00A40F6B040C2F2004090ED011A96
:10391000B7EEC11AB0EEC11B9FEDE12B81EE021B89
:1039200030EE010BB7EEC00B43F6F460C2F200407C
:1039300080ED000AFFE742F69400C2F200400078F2
:1039400005280AD1FFE743F6F460C2F200404CF6C6
:10395000CD41C3F6CC510160FFE742F69400C2F2BC
:103960000040007807280AD1FFE743F6F460C2F26E
:1039700000404CF28F21C3F6F5510160FFE740F69D
:103980002C00C2F200400078032830D1FFE740F657
:103990002C00C2F2004090ED030AB7EEC00AB0EE70
:1039A000C00BB1EE021BB4EE410BF1EE10FA0DDAD2
:1039B000FFE740F62C00C2F2004090ED030A9FEDB5
:1039C000BA1A30EE010A80ED030AFFE740F62C0038
:1039D000C2F2004090ED030A9FEDB41A20EE010AF6
:1039E00044F66C50C2F2004080ED000AFFE740F65A
:1039F0002C00C2F200400078022808D0FFE740F611
:103A00002C00C2F200400078052875D1FFE740F293
:103A10002C10C2F2004090ED000A42F2E470C2F2B3
:103A2000004090ED031A9FEDA22A71EE420A31EE9A
:103A3000021A07908DED062A20F082FB42F618202C
:103A4000C2F2004080ED000A40F62C01C2F20041B3
:103A50000022CA6090ED000A079890ED031A30EE3C
:103A6000410A9FED941A20EE010A9DED061A80EEA0
:103A7000010A44F66C51C2F2004181ED000A91ED59
:103A8000000A9FED8D2AB4EE420AF1EE10FA0ADD2B
:103A9000FFE744F66C50C2F2004049F69A11C3F6B3
:103AA00019710160FFE744F66C50C2F2004090EDDE
:103AB000000A9FED821AB4EE410AF1EE10FA0ADA1A
:103AC000FFE744F66C50C2F2004049F69A11CBF67B
:103AD00019710160FFE744F66C50C2F2004090EDAE
:103AE000000AB1EE021A20EE010A40F62C00C2F2E2
:103AF000004080ED030AFFE740F62C00C2F20040D0
:103B00000078012879D1FFE740F22C10C2F2004082
:103B100090ED000A9FED6A1A30EE010A42F2E4705D
:103B2000C2F2004090ED031A9FED612A71EE420A45
:103B300031EE021A05908DED042A20F001FB42F6C9
:103B40001820C2F2004080ED000A40F62C01C2F2BB
:103B500000410022CA6090ED000A059890ED031A1A
:103B600030EE410A9FED531A20EE010A9DED041A32
:103B700080EE010A44F66C51C2F2004181ED000A68
:103B800091ED000A9FED4C2AB4EE420AF1EE10FAD4
:103B90000ADDFFE744F66C50C2F2004049F69A1184
:103BA000C3F619710160FFE744F66C50C2F20040A1
:103BB00090ED000A9FED411AB4EE410AF1EE10FAC1
:103BC0000ADAFFE744F66C50C2F2004049F69A1157
:103BD000CBF619710160FFE744F66C50C2F2004069
:103BE00090ED000AB1EE021A20EE010A40F62C0018
:103BF000C2F2004080ED030AFFE740F6B040C2F297
:103C0000004090ED020A90ED051AB7EEC00A9FED54
:103C10002E2B20EE020B9FED2E3B80EE030B40F28D
:103C2000EC10C2F2004090ED004AB7EEC44A43F6F1
:103C30005460C2F2004090ED005AB7EEC55A00EE53
:103C4000045BB7EEC10A20EE020B80EE030B40F2DC
:103C5000E410C2F2004090ED001AB7EEC11A00EE77
:103C6000415BB7EEC50B8DED080A42F6AC00C2F21F
:103C7000004090ED000AB5EE400AF1EE10FA5EDC6D
:103C8000FFE742F6B000C2F2004090ED000AB5EE48
:103C9000400AF1EE10FA52DC2AE000BF00BF00BF7C
:103CA0000000000000C082C0EB51383D6F12833A23
:103CB00000003443D00F49C09A99193F9A9919BF0F
:103CC0000000B44200BF00BF1F85EB51B81E094081
:103CD0000000000000806640AE47E1BD00BF00BFAD
:103CE000000000C0F528BC3F000000400AD7D33FC9
:103CF00040F6B040C2F2004090ED020AB7EEC00AB2
:103D00001FED0F1B20EE010B1FED0F1B80EE010BB3
:103D100040F2E810C2F2004090ED001AB7EEC11A6E
:103D200043F65460C2F2004090ED002AB7EEC22A7A
:103D300000EE012BB7EEC20B80ED000AFFE70898FA
:103D400040F6F041C2F20041086040F6B040C2F2D5
:103D5000004090ED020AB7EEC00A1FED251B20EED1
:103D6000010B1FED252B80EE020B40F2EC11C2F28D
:103D7000004191ED003AB7EEC33A20EE030BB7EEE7
:103D8000C00B40F60851C2F2004181ED000A90EDEF
:103D9000050AB7EEC00A20EE010B80EE020B40F2DE
:103DA000E410C2F2004090ED001AB7EEC11A20EE06
:103DB000010BB7EEC00B40F6D010C2F2004080ED10
:103DC000000A9DED080AB7EEC00AB0EEC00B43F63C
:103DD000F460C2F2004090ED001A1FED412A31EE6E
:103DE000021AB7EEC11AB4EE410BF1EE10FA3FDD44
:103DF000FFE79DED080AB7EEC00AB0EEC00B1FED5D
:103E0000481B30EE010B1FED481BB4EE410BF1EEE9
:103E100010FA06DDFFE74CF6CD40C3F64C60089083
:103E2000FFE79DED080AB7EEC00AB0EEC01B1FED1C
:103E3000542B31EE021B31EE000BB7EEC00B43F6F4
:103E4000F860C2F2004080ED000A9DED080AB7EE6E
:103E5000C00AB0EEC01B31EE021B31EE400BB7EED4
:103E6000C00B43F6FC60C2F2004080ED000A1CE08B
:103E700043F6F460C2F2004090ED000A9DED081A8E
:103E800030EE010A43F6F861C2F2004181ED000A0A
:103E900090ED000A9DED081A30EE410A43F6FC60F1
:103EA000C2F2004080ED000AFFE701F095F900F052
:103EB000AFF9FEF725FD42F6AC00C2F2004090EDEE
:103EC000000AB0EE001AB4EE410AF1EE10FA0FDD6E
:103ED000FFE740F62C00C2F200400078052807D02A
:103EE000FFE740F6AC40C2F200400021016016E05E
:103EF00041F2A030C2F2004090ED000A45F2C84005
:103F0000C2F2004090ED001A9FEDBA2A00EE021AAC
:103F100040F6AC40C2F2004080ED001AFFE742F6E6
:103F2000B000C2F2004090ED000AB0EE001AB4EE0C
:103F3000410AF1EE10FA0FDDFFE740F62C00C2F265
:103F400000400078052807D0FFE740F6A840C2F2FD
:103F500000400021016016E041F28C30C2F20040C6
:103F600090ED000A45F2C840C2F2004090ED001A00
:103F70009FEDA12A00EE021A40F6A840C2F20040CE
:103F800080ED001AFFE7FFE742F69400C2F200401E
:103F90000078042840F0AD80FFE741F29030C2F293
:103FA000004049F69A11C3F69961016041F29830D8
:103FB000C2F2004049F69A12CBF69962026041F2D1
:103FC000A430C2F20040026041F2AC30C2F20040C4
:103FD000016040F22C10C2F2004090ED000A42F263
:103FE000E470C2F2004090ED031A9FED812A71EE59
:103FF000420A31EE021A03908DED022A20F0A0F859
:1040000042F61820C2F2004080ED000A039991EDBB
:10401000030AD0ED000A42F61C20C2F2004017F05D
:1040200013F99FED761A20EE010A9DED021A80EE3B
:10403000010A40F62C00C2F2004080ED030A40F66F
:104040001071C2F20041B1F9021040F6DC42C2F236
:104050000042B2F902201144494200EE101AB8EEB3
:10406000C00A9FED672A20EE020A90ED032AF1EEC6
:10407000420A44F62451C2F200410190084617F06A
:10408000E3F845F2C840C2F2004080ED000A40F279
:104090003071C2F2004191ED000A42F6CC12C2F238
:1040A000004292ED001A019A92ED012A31EE021AB5
:1040B00090ED002A00EE412A40F6AC43C2F20043E4
:1040C00083ED002A91ED000A42F6C811C2F20041C8
:1040D00091ED001A92ED012A31EE021A90ED002ABC
:1040E00000EE012A40F6A840C2F2004080ED002A0E
:1040F000FFE740F6AC40C2F2004090ED000A9FEDB1
:10410000411AB4EE410AF1EE10FA0ADDFFE740F67B
:10411000AC40C2F200404FF60041C4F27F61016042
:10412000FFE740F6AC40C2F2004090ED000A9FED80
:10413000361AB4EE410AF1EE10FA0ADAFFE740F659
:10414000AC40C2F200404FF60041CCF27F6101600A
:10415000FFE740F6A840C2F2004090ED000A9FED54
:10416000291AB4EE410AF1EE10FA0ADDFFE740F633
:10417000A840C2F200404FF60041C4F27F610160E6
:10418000FFE740F6A840C2F2004090ED000A9FED24
:104190001E1AB4EE410AF1EE10FA0ADAFFE740F611
:1041A000A840C2F200404FF60041CCF27F610160AE
:1041B000FFE740F6A840C2F2004090ED000AB1EEE1
:1041C000400ABDEEC00A10EE100A40F6AC41C2F241
:1041D000004191ED000AB1EE400ABDEEC00A10EEBA
:1041E000101A00B209B203F0E3FE0CB010BD00BF1C
:1041F0000000344300A02A4500A02AC5D00F494042
:104200000742B23A00FC7F4600FC7FC60000000077
:104210002DE9F047DAB044F67C50C2F2004090ED50
:10422000000A44F68051C2F20041509008464F9176
:104230001FF0CAFC4F98416844F67852C2F200421F
:10424000116044F6B051C2F2004191ED000A44F60B
:10425000B453C2F2004318464E924D914C931FF056
:10426000B3FC4C98416844F6AC52C2F20042116073
:1042700042F66011C2F2004191ED000A42F664116B
:10428000C2F2004108464B924A911FF09DFC4A98A9
:10429000416842F65C12C2F20042116042F68C1193
:1042A000C2F2004191ED000A42F69011C2F20041C3
:1042B0000846499248911FF087FC4898416842F6A9
:1042C0008812C2F200421160509991ED000A4792A3
:1042D0001EF0D8FE42F69C00C2F2004080ED000ABB
:1042E0004D9991ED000A46901EF0CCFE42F6A000DA
:1042F000C2F2004080ED000A509991ED000A45900D
:104300001FF024FA44F6C840C2F2004080ED000AD3
:104310004D9991ED000A44901FF018FA44F6D040F0
:10432000C2F2004080ED000A43F69461C2F20041FF
:1043300091ED000A469A92ED001A42F2E073C2F241
:10434000004393ED002AB0EE003A82EE032A10EE0D
:10435000012A45F2F45CC2F2004C8CED002A91ED8A
:10436000000ADDF810E19EED001A20EE010A45F288
:104370003C64C2F2004484ED000A93ED000A80EE32
:10438000030A91ED001A459B93ED002A01EE020A03
:1043900045F2FC55C2F2004585ED000A91ED000A98
:1043A00090ED001A20EE010A45F24460C2F200408E
:1043B00080ED000A95ED000A9CED001A30EE410AEE
:1043C00090ED001A94ED002A31EE421A21EE011A06
:1043D00000EE001AB0EE410A43918DED423ACDF85D
:1043E00004C140943F953E9017F0AAFC43F6CC6080
:1043F000C2F2004080ED000A43F69861C2F200412B
:1044000091ED000A30EE000A3F9A92ED001A419BAE
:1044100093ED002A31EE421A20EE010A40F2D07CE0
:10442000C2F2004C8CED000A91ED000A30EE000A59
:10443000DDF8F8E09EED001A409C94ED002A31EE84
:10444000421A20EE010A40F2F875C2F2004585EDED
:10445000000A90ED000A20EE000A40F62000C2F2A9
:10446000004080ED000A95ED000A9CED001A20EE58
:10447000002A01EE012A90ED001A01EE412A8DED8D
:104480003D0AB0EE420A3C91CDF8ECC03A9017F0EC
:1044900057FC9DED3D1A31EE000AB7EEC00A3B987D
:1044A00090ED002A3A9991ED003A32EE032AB7EEE8
:1044B000C21A24F0D1FC30EE000BB7EEC00B44F66C
:1044C000A450C2F2004080ED000A409991ED000A2C
:1044D0003E9A92ED001A30EE410A3C9B93ED001A91
:1044E00090ED002A8DED390AB0EE420A38908DED3C
:1044F000371A1FF02BF99DED391A9DED372A02EE80
:10450000001AB7EEC10A419890ED001A3F9991ED5B
:10451000002A31EE421A3C9A92ED002A389B93ED24
:10452000003A8DED340BB0EE430A8DED331A8DED6C
:10453000322A1EF0A7FD9DED331A9DED322A02EEC0
:10454000001AB7EEC11A9DED340B24F085FCB7EECE
:10455000C00B44F6A850C2F2004080ED000A389922
:1045600091ED000A90ED001A30EE410A31901FF0F3
:10457000EDF844F6CC40C2F2004080ED000A4199CB
:1045800091ED000A3C9A92ED001A389B93ED002AB7
:104590008DED300AB0EE420A2F908DED2E1A1EF0EE
:1045A00071FD9DED301A9DED2E2A02EE001A45F2A6
:1045B000F850C2F2004080ED001A409991ED000AD7
:1045C0003C9A92ED001A389B93ED002A8DED2D0A4E
:1045D000B0EE420A2C908DED2B1A1FF0B7F89DED2E
:1045E0002D1A9DED2B2A02EE001A45F24060C2F210
:1045F000004080ED001A90ED000AB7EEC00A2C9939
:1046000091ED001AB7EEC11A2A9024F025FCB7EEFE
:10461000C00B44F67450C2F2004080ED000A2C99A1
:1046200091ED000A2A9A92ED001A21EE011A00EE8D
:10463000001AB0EE410A299017F082FB43F6886019
:10464000C2F2004080ED000A439991ED000A4E9AB3
:1046500092ED001A389B93ED002A31EE421A8DED4F
:10466000280AB0EE410A27901FF070F89DED281A35
:1046700021EE000A319890ED001A8DED260AB0EE79
:10468000410A1FF063F89DED261A21EE000A2F98CB
:1046900090ED001A80EE010A499991ED001A439AB3
:1046A00092ED002A319B93ED003ADDF82CC19CED90
:1046B000004A33EE443A8DED250AB0EE430A8DED03
:1046C000241A8DED232A1FF041F89DED231A21EEC7
:1046D000000A389890ED001A8DED220AB0EE410ADA
:1046E0001FF034F89DED221A21EE000A2F9890ED6C
:1046F000001A80EE010A479991ED001A20EE010A96
:104700009DED251A9DED242A01EE020A42F6D012F3
:10471000C2F2004282ED000A439B93ED000ADDF8ED
:1047200038C19CED001ADDF8E0E09EED002A31EE84
:10473000421A8DED210AB0EE410A20921FF006F8D0
:104740009DED211A21EE000A319890ED001A8DEDB1
:104750001F0AB0EE410A1EF095FC9DED1F1A21EED6
:10476000000A2F9890ED001A80EE010A499991ED08
:10477000001A20EE010A439A92ED001A319B93ED44
:10478000002ADDF82CC19CED003A32EE432A8DED73
:104790001E0AB0EE420A8DED1D1A1EF0D7FF9DEDE8
:1047A0001D1A21EE000A389890ED001A8DED1C0AB2
:1047B000B0EE410A1EF066FC9DED1C1A21EE000AC7
:1047C0002F9890ED001A80EE010A479991ED001A9A
:1047D0009DED1E2A00EE412A42F60022C2F200425E
:1047E00082ED002A439B93ED000ADDF838C19CED71
:1047F000001ADDF8E0E09EED002A31EE421A8DED60
:104800001B0AB0EE410A1A921EF0A0FF9DED1B1A82
:1048100021EE000A319890ED001A8DED190AB0EEE4
:10482000410A1EF093FF9DED191A21EE000A2F9800
:1048300090ED001A80EE010A42F6D001C2F200416A
:1048400091ED001A439991ED002A319A92ED003AC8
:104850004B9B93ED004A33EE443A8DED180AB0EECF
:10486000430A8DED171A8DED162A1EF06FFF9DED90
:10487000161A21EE000A389890ED001A8DED150AEF
:10488000B0EE410A1EF062FF9DED151A21EE000AFE
:104890002F9890ED001A80EE010A42F6D801C2F27C
:1048A000004191ED001A20EE010A9DED181A9DEDD0
:1048B000172A01EE020A42F6E001C2F2004181ED40
:1048C000000A42F63411C2F200410A6843F69C63C2
:1048D000C2F200431A602C9A92ED000ADDF880C003
:1048E0009CED001ADDF8A8E09EED002A1A9C94EDDC
:1048F000003A22EE032A00EE012A279D95ED000AD8
:1049000082EE000A81ED000A91ED000A42F63C16A3
:10491000C2F2004630461491139312961FF054F9D8
:1049200012984168149A1160209991ED000A2A9B0F
:1049300093ED001A20EE010ADDF8B0C09CED002ACC
:10494000DDF868E09EED003A02EE430A21EE011A1E
:1049500002EE021A80EE010A42F62414C2F200446A
:1049600094ED001A30EE410A42F6EC04C2F2004423
:1049700084ED000A42F65005C2F2004595ED000AAA
:10498000299E96ED001A30EE010A9FEDFB1A31EEDA
:10499000400A42F2FC77C2F2004787ED000ADDF8D8
:1049A0009C80D8F8009043F68C6AC2F2004ACAF89C
:1049B000009098ED000A43F6D469C2F200494846D7
:1049C000119410950F97CDF838901FF0FDF80E98C0
:1049D0004168279A11600F9991ED000A42F614037D
:1049E000C2F2004318460D931FF0EEF80D9841688F
:1049F0000F9A1160119991ED000A42F6F403C2F288
:104A0000004318460C931FF0DFF80C984168119A88
:104A10001160439991ED000A299B93ED001ADDF88E
:104A2000C4C09CED002A31EE421A8DED0B0AB0EEA7
:104A3000410A1EF08BFE9DED0B1A21EE000A4E98E6
:104A400090ED001A389991ED002A31EE421A8DED61
:104A50000A0AB0EE410A1EF079FE9DED0A1A21EE17
:104A6000000A2F9890ED001AB1EE411A80EE010A6B
:104A70008DED590A439991ED000A299A92ED001A99
:104A8000319B93ED002A31EE421A8DED090AB0EE0A
:104A9000410A1EF0F7FA9DED091A21EE000A4E9820
:104AA00090ED001A389991ED002A31EE421A8DED01
:104AB000080AB0EE410A1EF049FE9DED081A21EEEB
:104AC000000A279890ED001A2F9991ED002A22EE06
:104AD000411A80EE010A8DED580A439A92ED000AC0
:104AE000299B93ED001ADDF8E0C09CED002A31EE21
:104AF000421A8DED070AB0EE410A1EF027FE9DED29
:104B0000071A21EE000A319890ED001A4B9991EDA9
:104B1000002A31EE421A8DED060AB0EE410A1EF06F
:104B200015FE9DED061A21EE000A2F9890ED001A51
:104B3000B1EE411A80EE010A8DED570A439991EDCD
:104B4000000A299A92ED001A389B93ED002A31EE63
:104B5000421A8DED050AB0EE410A1EF093FA9DED62
:104B6000051A21EE000A319890ED001A4B9991ED4B
:104B7000002A31EE421A8DED040AB0EE410A1EF011
:104B8000E5FD9DED041A21EE000A279890ED001A2C
:104B90002F9991ED002A22EE411A80EE010A8DED47
:104BA000560A599A43F66863C2F200431A60589A4B
:104BB00043F67063C2F200431A60579A43F6786373
:104BC000C2F200431A60569A43F68063C2F2004371
:104BD0001A600F9A92ED000A1EF054FA8DED530AF6
:104BE0000F9890ED000A1EF0B1FD8DED540A9DED79
:104BF000590A9DED561A20EE010A9DED581A9DEDB9
:104C0000572A01EE420A8DED550A9DED560A41F2F2
:104C10009430C2F2004090ED001A20EE010A9DEDA2
:104C2000581A41F29C31C2F2004191ED002A01EE86
:104C3000420A9FED521A20EE010A9DED552A80EEA0
:104C4000020A8DED520A9DED590A90ED002A20EEE0
:104C5000020A9DED572A91ED003A02EE430A20EE3A
:104C6000010A9DED551A80EE010A8DED510A9DED68
:104C7000520A9DED531A9DED512A9DED543A22EEB4
:104C8000032A279890ED003A82EE032A00EE012ACB
:104C900040F6FC41C2F2004181ED002A91ED000A8C
:104CA00044F24421C2F2004191ED001A40F2E87151
:104CB000C2F2004191ED012A9DED533A119991ED17
:104CC000004A23EE045A25EE045A90ED006A05EEE0
:104CD000062A9DED545A26EE056A42F6E802C2F213
:104CE000004292ED007A34EE477A26EE076A9FED95
:104CF000247A06EE072A149B93ED006A76EE060AE4
:104D000020EE844A04EE052ADDF84CC09CED004AF2
:104D100034EE464A23EE043A03EE072A01EE020A75
:104D200040F6082EC2F2004E8EED000A9EED000AFB
:104D300040F6F814C2F2004420460392CDF808E091
:104D400001941EF041FF01984168029A11600F9989
:104D50000B6842F2F87CC2F2004CCCF80030119B98
:104D6000D3F800C0DDF80CE0CEF800C045F2EC5CF2
:104D7000C2F2004C00F006B8F90FC93F9A991141F0
:104D800000007A449CED000A45F2F05CC2F2004C4F
:104D90009CED001A30EE010A9DED421A80EE010AE8
:104DA00045F2CC4CC2F2004C8CED000A42F6C8141D
:104DB000C2F2004494ED000A42F6CC14C2F2004460
:104DC00094ED002A30EE020A80EE010A42F6B41495
:104DD000C2F2004484ED000A45F2DC55C2F20045FF
:104DE0006D68CCF8005042F6B81CC2F2004CDCF8FA
:104DF00004C0C4F800C0DDF840C0DCF8004042F652
:104E00004C05C2F200452C6042F66404C2F2004434
:104E10002468012C1DD1FFE742F2FC70C2F2004071
:104E200090ED000AB7EEC00A45F2CC40C2F2004055
:104E300090ED001AB7EEC11AB6EE002B01EE020B90
:104E4000B7EEC00B42F2F870C2F2004080ED000AEB
:104E5000FFE742F62410C2F20040006842F620113B
:104E6000C2F20041086044F6A850C2F20040006857
:104E700043F6AC61C2F20041086044F24420C2F241
:104E8000004090ED000A40F2E870C2F2004090ED60
:104E9000011A9DED532A42F6EC00C2F2004090ED5B
:104EA000003A22EE034A24EE034A43F68860C2F237
:104EB000004090ED005A04EE051A9DED544A25EE8F
:104EC000045A42F6E801C2F2004191ED006A33EE65
:104ED000466A25EE065A9FEDBA6A05EE061A42F6B4
:104EE0003411C2F2004191ED005A35EE057A27EEF9
:104EF000033A03EE041A43F69C61C2F2004191EDBD
:104F0000003A33EE453A22EE032A02EE061A20EE6C
:104F1000010A43F6D061C2F2004181ED000A42F27B
:104F2000FC71C2F2004191ED000A00901EF0AAF857
:104F3000009890ED001A21EE000A80ED000A42F67A
:104F40009401C2F200410978062917D1FFE743F620
:104F50008C60C2F2004090ED000A9FED9C1A31EE89
:104F6000400A9FED9B1A9FED9B2A00EE012A40F616
:104F7000F010C2F2004080ED002AEAE042F6940010
:104F8000C2F200400078072833D0FFE743F6F8600C
:104F9000C2F2004090ED000A43F68860C2F2004081
:104FA00090ED001A30EE410A40F2BC10C2F200400F
:104FB00090ED002A43F64C60C2F2004090ED003ABA
:104FC00000EE023A43F6A460C2F2004090ED000AFF
:104FD00030EE410A40F2B010C2F2004090ED001AEB
:104FE00000EE013A40F6F010C2F2004080ED003AC7
:104FF0002CE043F6F860C2F2004090ED000A43F660
:105000008860C2F2004090ED001A30EE410A40F292
:10501000C010C2F2004090ED002A43F6A460C2F234
:10502000004090ED003A33EE411A40F2B410C2F263
:10503000004090ED003A21EE031A00EE021A40F60D
:10504000F010C2F2004080ED001AFFE740F62C009D
:10505000C2F20040007805282FD0FFE740F62C0070
:10506000C2F200400078032827D0FFE740F62C006A
:10507000C2F20040007800281FD0FFE743F6F86036
:10508000C2F2004090ED000A43F68860C2F2004090
:1050900090ED001A30EE410A40F2B810C2F2004022
:1050A00090ED001A43F64C60C2F2004090ED002AE9
:1050B00000EE012A80ED002AFFE743F64C60C2F2C1
:1050C000004090ED000AB5EE400AF1EE10FA07DA62
:1050D000FFE743F64C60C2F2004000210160FFE7A9
:1050E00043F64C60C2F2004090ED000A9FED351A85
:1050F000B4EE410AF1EE10FA09DDFFE743F64C6029
:10510000C2F200400021C4F2F0210160FFE743F643
:105110008860C2F20040006843F6A461C2F2004118
:10512000086040F6F010C2F2004090ED000A9FEDDA
:10513000261AB4EE410AF1EE10FA09DDFFE740F657
:10514000F010C2F200400021C4F28C310160FFE790
:10515000FFE742F2FC70C2F2004090ED000A1DF041
:1051600091FF43F68860C2F2004090ED001A81EE94
:10517000000A80ED000A40F60820C2F2004090EDDF
:10518000000AB2EE041AB4EE410AF1EE10FA0DDA9A
:10519000FFE742F6B000C2F2004090ED000AB7EE21
:1051A000001A30EE010A80ED000A06E042F6B00077
:1051B000C2F2004000210160FFE75AB0BDE8F0876D
:1051C00000007A440000F04200008C43CDCCCC3D7E
:1051D0000000E1440000B4432DE9F043D7B044F6A9
:1051E0009050C2F2004090ED000A44F69450C2F292
:1051F00000404D901EF0E8FC4D98416844F678520E
:10520000C2F20042116044F6C451C2F2004191ED75
:10521000000A44F6C851C2F2004108464C924B9134
:105220001EF0D2FC4B98416844F6AC52C2F20042E8
:10523000116042F67411C2F2004191ED000A42F68B
:105240007811C2F2004108464A9249911EF0BCFC16
:105250004998416842F65C12C2F20042116042F67F
:10526000A011C2F2004191ED000A42F6A411C2F26F
:1052700000410846489247911EF0A6FC47984168B5
:1052800042F68812C2F2004211604C9991ED000A78
:1052900046921DF0F7FE42F69C00C2F2004080EDFF
:1052A000000A4A9991ED000A45901DF0EBFE42F686
:1052B000A000C2F2004080ED000A4C9991ED000A76
:1052C00044901EF043FA44F6C840C2F2004080ED1C
:1052D000000A4A9991ED000A43901EF037FA44F60D
:1052E000D040C2F2004080ED000A43F69461C2F261
:1052F000004191ED000A459A92ED001A42F2E073E6
:10530000C2F2004393ED002AB0EE003A82EE032A87
:1053100010EE012A45F2F45CC2F2004C8CED002A3A
:1053200091ED000ADDF80CE19EED001A20EE010A75
:1053300045F23C64C2F2004484ED000A93ED000A99
:1053400080EE030A91ED001A449B93ED002A01EED2
:10535000020A45F2FC55C2F2004585ED000A91EDC6
:10536000000A90ED001A20EE010A45F24460C2F2F4
:10537000004080ED000A95ED000A9CED001A30EE29
:10538000410A90ED001A94ED002A31EE421A21EE06
:10539000011A00EE001AB0EE410A42918DED413A39
:1053A000CDF800C13F943E953D9016F0C9FC43F600
:1053B000CC60C2F2004080ED000A43F69861C2F270
:1053C000004191ED000A30EE000A3E9A92ED001A7B
:1053D000409B93ED002A31EE421A20EE010A40F282
:1053E000D07CC2F2004C8CED000A91ED000A30EE48
:1053F000000ADDF8F4E09EED001A3F9C94ED002ACF
:1054000031EE421A20EE010A40F2F875C2F2004570
:1054100085ED000A90ED000A20EE000A40F620001B
:10542000C2F2004080ED000A95ED000A9CED001AE2
:1054300020EE002A01EE012A90ED001A01EE412A29
:105440008DED3C0AB0EE420A3B91CDF8E8C03990B0
:1054500016F076FC9DED3C1A31EE000AB7EEC00A5C
:105460003A9890ED002A399991ED003A32EE032AEC
:10547000B7EEC21A23F0F0FC30EE000BB7EEC00B13
:1054800044F6A450C2F2004080ED000A3F9991ED2D
:10549000000A3D9A92ED001A30EE410A3B9B93EDD3
:1054A000001A90ED002A8DED380AB0EE420A3790CE
:1054B0008DED361A1EF04AF99DED381A9DED362A0B
:1054C00002EE001AB7EEC10A409890ED001A3E991C
:1054D00091ED002A31EE421A3B9A92ED002A379B59
:1054E00093ED003A8DED340BB0EE430A8DED331A97
:1054F0008DED322A1DF0C6FD9DED331A9DED322A49
:1055000002EE001AB7EEC11A9DED340B23F0A4FC95
:10551000B7EEC00B44F6A850C2F2004080ED000A7E
:10552000379991ED000A90ED001A30EE410A319062
:105530001EF00CF944F6CC40C2F2004080ED000AA7
:10554000409991ED000A3B9A92ED001A379B93ED3A
:10555000002A8DED300AB0EE420A2F908DED2E1A02
:105560001DF090FD9DED301A9DED2E2A02EE001AE1
:1055700045F2F850C2F2004080ED001A3F9991EDDB
:10558000000A3B9A92ED001A379B93ED002A8DEDAD
:105590002D0AB0EE420A2C908DED2B1A1EF0D6F893
:1055A0009DED2D1A9DED2B2A02EE001A45F240606A
:1055B000C2F2004080ED001A90ED000AB7EEC00A7A
:1055C0002C9991ED001AB7EEC11A2A9023F044FCF1
:1055D000B7EEC00B44F67450C2F2004080ED000AF2
:1055E0002C9991ED000A2A9A92ED001A21EE011AE7
:1055F00000EE001AB0EE410A299016F0A1FB43F626
:105600008860C2F2004080ED000A429991ED000AE4
:105610004C9A92ED001A379B93ED002A31EE421A14
:105620008DED280AB0EE410A27901EF08FF89DED0F
:10563000281A21EE000A319890ED001A8DED260A05
:10564000B0EE410A1EF082F89DED261A21EE000A06
:105650002F9890ED001A80EE010A489991ED001AFA
:10566000429A92ED002A319B93ED003ADDF828C171
:105670009CED004A33EE443A8DED250AB0EE430A24
:105680008DED241A8DED232A1EF060F89DED231A6E
:1056900021EE000A379890ED001A8DED220AB0EE47
:1056A000410A1EF053F89DED221A21EE000A2F98B0
:1056B00090ED001A80EE010A469991ED001A20EE55
:1056C000010A9DED251A9DED242A01EE020A42F6FB
:1056D000D012C2F2004282ED000A429B93ED000A12
:1056E000DDF830C19CED001ADDF8DCE09EED002A0B
:1056F00031EE421A8DED210AB0EE410A20921EF0E1
:1057000025F89DED211A21EE000A319890ED001A3E
:105710008DED1F0AB0EE410A1DF0B4FC9DED1F1A7D
:1057200021EE000A2F9890ED001A80EE010A4899A8
:1057300091ED001A20EE010A429A92ED001A319B77
:1057400093ED002ADDF828C19CED003A32EE432AA1
:105750008DED1E0AB0EE420A8DED1D1A1DF0F6FF0A
:105760009DED1D1A21EE000A379890ED001A8DED7F
:105770001C0AB0EE410A1DF085FC9DED1C1A21EEBD
:10578000000A2F9890ED001A80EE010A469991EDDB
:10579000001A9DED1E2A00EE412A42F60022C2F2B6
:1057A000004282ED002A429B93ED000ADDF830C1F1
:1057B0009CED001ADDF8DCE09EED002A31EE421A85
:1057C0008DED1B0AB0EE410A1A921DF0BFFF9DED50
:1057D0001B1A21EE000A319890ED001A8DED190A7E
:1057E000B0EE410A1DF0B2FF9DED191A21EE000A3C
:1057F0002F9890ED001A80EE010A42F6D401C2F211
:10580000004191ED001A429991ED002A319A92EDF2
:10581000003A4A9B93ED004A33EE443A8DED180A64
:10582000B0EE430A8DED171A8DED162A1DF08EFF8E
:105830009DED161A21EE000A379890ED001A8DEDB5
:10584000150AB0EE410A1DF081FF9DED151A21EEFB
:10585000000A2F9890ED001A80EE010A42F6DC0152
:10586000C2F2004191ED001A20EE010A9DED181AD6
:105870009DED172A01EE020A42F6E401C2F2004150
:1058800081ED000A42F63811C2F200410A6843F67F
:10589000A063C2F200431A602C9A92ED000ADDF870
:1058A00080C09CED001ADDF8A8E09EED002A1A9C4D
:1058B00094ED003A22EE032A00EE012A279D95ED91
:1058C000000A82EE000A81ED000A91ED000A42F61C
:1058D0004C16C2F2004630461491139312961EF0F5
:1058E00073F912984168149A1160209991ED000A99
:1058F0002A9B93ED001A20EE010ADDF8B0C09CED62
:10590000002ADDF868E09EED003A02EE430A21EE3F
:10591000011A02EE021A80EE010A42F62814C2F2BF
:10592000004494ED001A30EE410A42F6F004C2F24F
:10593000004484ED000A42F65405C2F2004595ED9C
:10594000000A299E96ED001A30EE010A9FEDFB1A1F
:1059500031EE400A42F60007C2F2004787ED000A26
:10596000DDF8088198ED000A96ED001ADDF8C49084
:1059700099ED002A31EE421A8DED110AB0EE410A7E
:1059800010940F950E971DF0E1FE9DED111A21EE7A
:10599000000A4C9890ED001A379991ED002A31EEEB
:1059A000421A8DED0D0AB0EE410A1DF0CFFE9DEDBD
:1059B0000D1A21EE000A2F9890ED001AB1EE411A4F
:1059C00080EE010A8DED560A429991ED000A299A5E
:1059D00092ED001A319B93ED002A31EE421A8DEDC3
:1059E0000C0AB0EE410A1DF04DFB9DED0C1A21EEA4
:1059F000000A4C9890ED001A379991ED002A31EE8B
:105A0000421A8DED0B0AB0EE410A1DF09FFE9DED8E
:105A10000B1A21EE000A279890ED001A2F9991EDAC
:105A2000002A22EE411A80EE010A8DED550A429AB3
:105A300092ED000A299B93ED001ADDF8DCC09CED85
:105A4000002A31EE421A8DED0A0AB0EE410A1DF02D
:105A50007DFE9DED0A1A21EE000A319890ED001AA4
:105A60004A9991ED002A31EE421A8DED090AB0EE05
:105A7000410A1DF06BFE9DED091A21EE000A2F98D8
:105A800090ED001AB1EE411A80EE010A8DED540A34
:105A9000429991ED000A299A92ED001A379B93EDF5
:105AA000002A31EE421A8DED080AB0EE410A1DF0CF
:105AB000E9FA9DED081A21EE000A319890ED001ADE
:105AC0004A9991ED002A31EE421A8DED070AB0EEA7
:105AD000410A1DF03BFE9DED071A21EE000A2798B2
