:020000040800F2
:1000000028C2012061040008D1B601085177010817
:10001000C9B60108F1220008F163020800000000DF
:10002000000000000000000000000000B1C701084F
:10003000F982000800000000F1BF0108C9CB0108E7
:100040007B0400087B0400087B0400087B04000894
:100050007B0400087B0400087B0400087B04000884
:100060007B0400087B0400087B040008D1770008AB
:100070007B040008E1770008F177000801780008A8
:1000800011780008217800087B040008A983000883
:10009000C9830008B9830008D98300087B040008DD
:1000A00009CE010829CE01087B04000819CE0108F9
:1000B00039CE010889CE01087B0400087B040008C2
:1000C0007B0400087B0400087B0400087B04000814
:1000D0007B040008591B0208B1200208992302087A
:1000E0007B0400087B040008000000007B0400087B
:1000F0007B0400087B0400087B04000831780008BA
:100100007B0400087B0400087B0400087B040008D3
:1001100019D9010829D9010811CF01087B04000869
:1001200041780008517800087B0400087B0400082F
:100130007B0400087B0400087B0400087B040008A3
:1001400000000000000000000000000000000000AF
:100150007B0400087B0400087B0400087B04000883
:100160007B0400087B0400087B0400087B04000873
:100170007B04000891B901087B040008000000001E
:100180007B0400087B0400087B0400087B04000853
:100190007B0400087B0400087B0400087B04000843
:1001A0007B0400087B0400087B04000800000000BA
:1001B0007B0400087B0400087B0400087B04000823
:1001C0007B0400087B040008000000000000000021
:1001D00000000000000000007B0400080000000098
:1001E000000000000000000000000000000000000F
:1001F00000000000000000007B0400087B040008F1
:100200007B0400087B040008000000007B04000859
:100210007B0400087B0400087B0400087B040008C2
:100220007B040008000000007B04000800000000C0
:100230007B0400087B040008000000007B04000829
:100240007B0400087B0400087B0400087B04000892
:100250007B0400087B0400087B0400087B04000882
:100260007B0400087B0400087B0400087B04000872
:100270007B0400087B0400087B04000800000000E9
:100280007B0400087B0400087B0400087B04000852
:10029000000000007B0400087B0400080000000050
:1002A000000000007B0400087B0400087B040008B9
:1002B0007B0400087B0400087B0400087B04000822
:1002C0007B0400087B0400087B04000800F002F8AF
:1002D00000F0B6F80AA090E8000C82448344AAF12A
:1002E0000107DA4501D100F0ABF8AFF2090EBAE828
:1002F0000F0013F0010F18BFFB1A43F0010318475A
:1003000068D80200A8D802000A444FF0000C10F888
:10031000013B13F0070408BF10F8014B1D1108BF83
:1003200010F8015B641E05D010F8016B641E01F823
:10033000016BF9D113F0080F1EBF10F8014BAD1C73
:100340000C1B09D16D1E58BF01F801CBFAD505E091
:1003500014F8016B01F8016B6D1EF9D59142D6D3EB
:10036000704700000023002400250026103A28BF13
:1003700078C1FBD8520728BF30C148BF0B60704717
:100380006E2900F03983702900F07B8466292CF0F7
:10039000648265292CF0618267292CF05E826129D4
:1003A0002CF05D8203681B0A28BF41F08001692997
:1003B00000F0E682642900F0E382752900F0E08213
:1003C0006F2900F00984782900F04784E92900F0BA
:1003D000A383E42900F0A083F52900F09D83EF2991
:1003E00000F00684F82900F046840368DB0928BF82
:1003F00041F08001632901F06981732901F06E8168
:10040000E32901F07981F32901F07E810020704712
:100410001FB52CF015FA9DE8030000F00DFA01F06D
:10042000D1F90400002000212CF0F4F9401C606098
:10043000002000212CF0D8F9E0601FBD10B510BDE0
:1004400001F092F91146FFF7E3FF27F029F901F0D7
:100450006FFA03B4FFF7F2FF03BC01F09FFA00004C
:100460000948804709480047FEE7FEE7FEE7FEE748
:10047000FEE7FEE7FEE7FEE7FEE7FEE70448054984
:10048000054A064B70470000C9CC0108CD020008A0
:100490000039032428C2012000C904242832002086
:1004A00070B5064600F0ACF9056806F10B0020F0C7
:1004B0000704B4429CBF002070BD2B466A68BAB1E5
:1004C0001068A04210D304F1080188423CBF506874
:1004D000586007D35168101941601168091B016009
:1004E00058601460101D70BD13465268002AE7D191
:1004F0002146284600F08CF90028DED170BD70B589
:100500000446051F00F07CF90068002C14BF446805
:1005100070BD002C18BFAC423CBF20466468F8D3C5
:1005200001680A18AA4218BF456003D12A68054627
:100530001144016028684119A1421CBF6C6070BD64
:100540006168696021680844286070BD53EA020C44
:1005500000F069802DE9F04B4FF00006002B1FBF23
:10056000B3FA83F503FA05F424FA05F65E4012BFE8
:100570001643B2FA82F502FA05F4C5F120051EBF52
:1005800022FA05FC44EA0C04203556EA044C4FEAF2
:10059000144418BF641C4FF000084FF0000990424B
:1005A00071EB030C39D3002919BFB1FA81F701FAB5
:1005B00007F6B0FA80F700FA07F6C7F120071EBF6A
:1005C00020FA07FC46EA0C062037B6FBF4FCA7EB42
:1005D0000507103F07F01F0BCBF120062CFA06F69B
:1005E0000CFA0BFB44BFB3460026202FA4BF5E4687
:1005F0004FF0000B5BEA060C08BF4FF0010B19EB44
:100600000B0948EB0608ABFB027C06FB02CC0BFB9C
:1006100003CCC01B71EB0C01C1E70B4602464146FF
:100620004846BDE8F08B13B5084318BF4FF0FF30C4
:100630000146AFF30080BDE81C4070470FB41CB505
:10064000084B06AA7B4469460090059800F0EDF936
:1006500004460020694600F0FBF920461CBC5DF80A
:1006600014FB000009040000032A40F2308010F05F
:10067000030C00F0158011F8013BBCF1020F62443D
:1006800098BF11F801CB00F8013B38BF11F8013BCE
:10069000A2F1040298BF00F801CB38BF00F8013B7B
:1006A00011F0030300F02580083AC0F0088051F8EB
:1006B000043B083A51F804CBA0E80810F5E7121DF6
:1006C0005CBF51F8043B40F8043BAFF30080D20715
:1006D00024BF11F8013B11F801CB48BF11F8012BE1
:1006E00024BF00F8013B00F801CB48BF00F8012B04
:1006F000704710B5203AC0F00B80B1E81850A0E860
:100700001850B1E81850A0E81850203ABFF4F5AFDF
:100710005FEA027C24BFB1E81850A0E8185044BF3B
:1007200018C918C0BDE810405FEA827C24BF51F8A8
:10073000043B40F8043B08BF7047D20728BF31F89C
:10074000023B48BF11F8012B28BF20F8023B48BFED
:1007500000F8012B704702F0FF0343EA032242EA4C
:10076000024200F024B84FF000020429C0F01280C9
:1007700010F0030C00F01B80CCF1040CBCF1020F54
:1007800018BF00F8012BA8BF20F8022BA1EB0C0129
:1007900000F00DB85FEAC17C24BF00F8012B00F81F
:1007A000012B48BF00F8012B70474FF0000200B545
:1007B000134694469646203922BFA0E80C50A0E884
:1007C0000C50B1F12001BFF4F7AF090728BFA0E832
:1007D0000C5048BF0CC05DF804EB890028BF40F8FE
:1007E000042B08BF704748BF20F8022B11F0804F40
:1007F00018BF00F8012B7047704770477047000022
:100800000048704778010020704770477047704774
:1008100038B504460A4600206946AFF30080002838
:1008200008BF38BD02460099204600F001FB0120B8
:1008300038BD012000F090BFF8B5AFF30080054649
:1008400000200C46102000BF0646A819A0420DD972
:10085000324669460020AFF30080070008BF00F071
:100860007BFF0098A04218BF0546C419FFF7C8FFD8
:1008700005600746F01D20F007004619284600F0E5
:100880000AF8B44208BFF8BDA21B31463868BDE87B
:10089000F84000F0CDBA00210160C0E901107047B6
:1008A0001020704710B500F0BFFA006810BD10B5F9
:1008B000044600F0B9FA046010BD70B504468569BD
:1008C0000068C10601D5302600E02026C00707D009
:1008D00070BDD4E9012130469047206A401C206257
:1008E0006D1EF6D570BD70B5044685690078C007E9
:1008F00007D170BDD4E9012120209047206A401C17
:1009000020626D1EF6D570BD09684A0501D540B25A
:100910007047C905FCD500B2704709684A0501D582
:10092000C0B27047C905FCD580B2704770B50C469F
:100930000546012A05D02878800600D5EA690023FB
:1009400002E0012305E05B1C934202D2E05C002838
:10095000F9D1A869E618C01AA861286A1844286263
:100960002846FFF7AAFF04E0D5E9012114F8010B9E
:100970009047B442F8D32846FFF7B5FF70BD00009A
:100980002DE9F0410646002410687529314616A568
:1009900010D0FFF7B9FF002802DA404213A507E0A4
:1009A00031688A0701D512A502E0490704D511A5CF
:1009B000012401E0FFF7B1FF00210A2206F124071C
:1009C00009E0B0FBF2FCB0FBF2F302FB1C0030309C
:1009D00078541846491C0028F3D123462A4630464D
:1009E000BDE8F04100F083BA000000002D000000D7
:1009F0002B0000002000000011680268006A530507
:100A000001D508700AE0D30501D5088006E0130679
:100A100003D5C217C1E9000200E008600120704759
:100A200001694A1C02610878704700B58FB0CDE9B2
:100A300001310021059105497944CDE903101146A2
:100A4000684600F029F90FB000BD0000E5FFFFFF88
:100A50000A6802F8010B0A60704700002DE9FF5F89
:100A600015468A460446DFF8AC80F8440027D8E9EA
:100A700000103E46CDE9001010E03AF816106A4624
:100A800002A800F045FE411C07D02178890603D555
:100A9000E269391891420DD80744761C2078800607
:100AA00002D5E069B84205DDAE42E6DB3AF8160051
:100AB0000028E2D1A069C01BA0612046FFF7FDFE1F
:100AC000D8E90010CDE90010002017E03AF818101E
:100AD0006A4602A800F01CFEB0F1FF3F81460BD031
:100AE00000250DF1080B05E0D4E901211BF80500F4
:100AF00090476D1C4D45F7D308F10100B042804688
:100B0000E4DB206A384420622046FFF7ECFEBDE8B3
:100B1000FF9F0000F6BD02002DE9F0418046D21D86
:100B200022F007020025D2E90002F52915A614D00B
:100B3000011E72F1000106DA0023D0EB030063EB23
:100B4000020211A608E0D8F800108B0701D50FA605
:100B500002E0490701D50EA601251146002408F13F
:100B6000240704E000F07EF930323A55641C50EA64
:100B70000102F7D12B46324621464046BDE8F041FE
:100B800000F0B5B9000000002D0000002B000000AF
:100B90002000000030B4002100F1240408E002F03D
:100BA0000705D208303542EA4372DB086554491C18
:100BB00052EA0305F3D10468002310A2250708D5E3
:100BC00004F020040C4304D0C46901230CA2641E69
:100BD000C46130BC00F08BB910B5044621461068E2
:100BE000FFF79BFE02462046BDE810400023D1E7F8
:100BF000D21D22F00701D1E90023CBE7000000005D
:100C000030000000F0B40D460188090502D5214CE2
:100C10007C4402E01F4C7C440E34002100F1240689
:100C200008E002F00F071209E75D42EA03721B09B0
:100C30007754491C52EA0307F3D1027800231207C4
:100C400004D5702D06D009B1022311342246F0BC20
:100C500000F04DB901231034F8E770B504460D4695
:100C600021461068FFF759FE024629462046BDE896
:100C700070400023C6E7D21D22F00703D3E900230A
:100C8000C0E70368126843F0200303600823C361D0
:100C90000023B7E758BC02002DE9F05F89460446FF
:100CA0004FF0000ADFF874B1FB44C0F820A02046E2
:100CB000E1688847002874D0252806D0D4E90121AE
:100CC0009047206A401C2062F1E700265F462046DC
:100CD000E16888472028054607DB312D05D27819C1
:100CE00010F8200C08B10643F1E7B00701D526F053
:100CF0000406C4F81CA00027C4F818A02A2D09D0A7
:100D000028462BF037FD38B304EB8708303DC8F890
:100D1000185019E059F8041B204604EB8702916132
:100D2000E1688847012F054618D1E069002820DADC
:100D300026F020061DE0D8F8180000EB800005EB37
:100D400040003038C8F818002046E168884705465A
:100D50002BF010FD0028EED1012F0AD02E2D08D146
:100D60002046E16888477F1C0546022F46F0200692
:100D7000C4DBA069002803DA404246F00106A06106
:100D8000F00701D026F010066C2D0BD0682D09D08D
:100D90004C2D39D06A2D35D0742D35D07A2D33D0E5
:100DA00016E038E0E1682F4620468847B8420546FD
:100DB00009D16C2F26D04FF48060E16806432046AD
:100DC0008847054604E06C2F1AD04FF48070064324
:100DD0000DB3A5F14100192802D8203546F400666C
:100DE0004A462946204626604E46FFF7C9FA80B19A
:100DF00001280BD0F61D26F0070000F1080956E780
:100E00004020E4E78020D8E70020D6E706F1040977
:100E10004DE7284652E7206ABDE8F09FE8BB020094
:100E200000487047700100200048704770010020A2
:100E3000034640688C46002818BF88423CBF0346E2
:100E40004068F8D318681844884207D00CF10300B2
:100E500020F00700001D411A521A0146081D0A60C1
:100E6000FFF74DBB30B5B0F10A0271F100034FEA54
:100E7000900E4EEA817EB0EB0E0061EB91014FEADD
:100E8000101E4EEA017E10EB0E0041EB11114FEAED
:100E9000102E4EEA016E10EB0E0041EB11214FEACD
:100EA000104E4EEA014E10EB0E0041EB114140187E
:100EB00041F100014FEAD00040EA41704FEAD10110
:100EC0004FEA810444EA907410EB800544EB01047E
:100ED0006D1944EB0404521BA3414FF0000348BFBB
:100EE0000A3200D530BD401C41F1000130BD2DE972
:100EF000F0470D4699469246044600F124080168E1
:100F0000880604D5E06921F01001216000E001208D
:100F1000A84201DD471B00E00027A1697A1902EB16
:100F20000900081AA0612078C00602D42046FFF705
:100F3000C4FC002608E0D4E901211AF80600904715
:100F4000206A401C761C20624E45F4DB2078C006E7
:100F50000AD52046FFF7B1FC06E0D4E90121302094
:100F60009047206A401C2062381EA7F10107F4DC7C
:100F700007E0D4E9012118F805009047206A401CD9
:100F80002062281EA5F10105F3DC2046FFF7ABFC2B
:100F90002078000602D50220BDE8F0870120FBE79B
:100FA0002DE9FF4F0C461E464FF0FF378BB0D2E9BC
:100FB0000001DDF860800A908A46C1F30A5505B940
:100FC0003D46002108464FF00000BAF1000F00F442
:100FD000400005DA00EB80004FF4400101EA5000C8
:100FE0004FEA9059B9F1010F00DDB9460A9850EA6D
:100FF0004A000ED044F61050A5F2FF3545432F1499
:10100000B8F1000F1ED07542291E1EDDC9F1000285
:101010001CE0B8F1010F4FF0000001D0302103E0D7
:10102000F24305E02154401CB042FBDB3046002275
:10103000002121540B99C1F80880C1E900200FB0AC
:10104000BDE8F08FBD1B6D1CDEE74A4600DA694241
:1010500006A800F0FBFB06AB93E8070003AB83E8B0
:10106000070050460A992AF0CAFA8DE80700A0F551
:1010700000501F3800900398002D0ADD42F21F0136
:101080004A460844002303A9039068462AF033FD2A
:1010900009E0A0F500504A461F38002303A9039039
:1010A00068462AF03DFD8DE807000004000C03D0DF
:1010B0004FF0FF30410800E01046B8F1000F03D0B8
:1010C0000022009215461EE0751E05D4FFF7CAFEE9
:1010D000303262556D1EF9D5B3460122084302D065
:1010E00000227F1C04E02078302801D100227F1EDE
:1010F000002A099784D01DE0112D07DAFFF7B2FE10
:10110000303262556D1C50EA0102F5D1084302D01D
:101110000098C8B10EE00021681E05E0235C625C07
:1011200063542254401E491C8142F7DBAB46A81B86
:10113000401E0990002004F80B000B98099AC0F893
:101140000880C0E9002B7AE711264FF0000857E726
:101150002DE9F04F88460446D21D22F0070191B0D8
:10116000D1E90001CDE90A012AF011FE02460B98EF
:10117000C00F01D02D2007E02068810701D52B206A
:1011800002E0202101EAC000032A099001D0072AC9
:1011900005DB03464146204600F018FB0BE12078B2
:1011A000800601D5E06900E00620B8F1650F8146B0
:1011B00006D0B8F1660F18D0B8F1670F70D131E0E2
:1011C0000020B9F1110F009001DB112301E009F1BA
:1011D00001030AAA01A90CA8FFF7E2FEDDE90C70E1
:1011E000002609F10105834647E001204B460090A7
:1011F0004FF000470AAA01A90CA8FFF7D1FEDDE9CC
:101200000DB00C995D46002610B909F101000D18CA
:10121000B9EB050003D4C0F1FF3609F10105A5EBD8
:1012200009002BE0B9F1010F01DA4FF001090020AC
:10123000B9F1110F0090484601DD112300E003468B
:101240000AAA01A90CA8FFF7ABFEDDE90C704D4618
:1012500000268346207800070AD4AB4500DA5D46B5
:1012600001A8012D04DD411911F8011C302907D016
:101270004F4502DA17F1040F04DA012082460FE02D
:101280006D1EEEE7002F02DCED1B3E4403E0781CF0
:10129000A84200DD7D1CB81B00F1010A4FF0004799
:1012A0002078000703D4AA4501DB4FF0FF3A002164
:1012B000B7F1004F0DF143088DF8431024D0022000
:1012C0002B23002F01DA7F422D230A21021EA0F1D9
:1012D000010000DC5FB197FBF1FC97FBF1F201FB31
:1012E0001C7C17460CF1300C08F801CDEEE7A8F194
:1012F000010003702188090501D5452100E0652121
:10130000A0F1010800F8011C09980FA9A1EB08073A
:10131000FF1D00B10120411901EBEA70A1693844B9
:10132000081A401EA0612078C00602D42046FFF7AC
:10133000C4FA099828B1D4E901219047206A401CD9
:1013400020622078C00622D52046FFF7B6FA1EE0BC
:10135000002E04DBB34502DD01A8805D00E03020F3
:10136000D4E901219047206A401C2062761CAAF132
:1013700001005FEA000A0AD100F024FAC06801689F
:10138000405CD4E901219047206A401C2062281E5D
:10139000A5F10105DCDC07E0D4E9012118F8010B17
:1013A0009047206A401C2062381EA7F10107F3DC39
:1013B0002046FFF798FA032011B041E62DE9F04FDF
:1013C00004460D46D21D22F0070089B0D0E90097EF
:1013D000484639462AF0DBFC0246F80F01D02D239F
:1013E00007E02068810701D52B2302E0202101EAD4
:1013F000C0038DF820300BB1012000E00020032A4B
:10140000824601D0072A04DB2946204600F0DEF997
:101410003FE12078800601D40D2500E0E569C7F39F
:101420000A560D2D49DA00214FEA175B08464FF0A6
:101430000000002F00F4400007DA00EB80004FF4BA
:10144000400100EBD07001EA60008115012901DD47
:101450004FF0FF3100224FEA850CBCF1180F06D384
:101460001346ACF118004FF08052C24003E04FF435
:10147000801323FA0CF30CF10C0CBCF1200F04D3F5
:10148000ACF1200C09FA0CF001E007FA0CF000298D
:101490004FF0004801DD18B90FE00ED140450CD3E4
:1014A00019EB02095F4121B9404502D19F4329EA66
:1014B0000209BBEB175F00D0761C2088000502D51F
:1014C0007B48784402E07A487844193808AA3023E7
:1014D00002F80A30037C0AF10101002E0AF1020A27
:1014E00053546A4602DC4FF0300101E04FF0310105
:1014F0004FF001088DF8001002D0A6F2FF3603E08D
:1015000059EA470100D06B4E002D02DC2178090713
:1015100004D54FF002082E218DF80110C446002199
:101520000BE0C7F303433F01C35C491C6D1E02F887
:101530000830052908F1010801DA002DF1DC00214D
:101540000CE000EB1973491C1B786D1E082902F88A
:1015500008304FEA091908F1010801DA002DF0DC22
:1015600021688B0602D516E0A8F10108E04505DDEB
:1015700002EB080313F8013C302BF5D0B8F1000F53
:1015800009DD02EB080313F8013C2E2B03D10907F8
:1015900001D4A8F10108002D05DD3E2102F8081054
:1015A0006D1E08F10108407C002E02F8080008F1C9
:1015B000010804DA2D20764202F8080002E02B2010
:1015C00002F808000A214FF47A70864208F10108F7
:1015D0000BDB96FBF0F3303302F8083096FBF0F3A8
:1015E00008F1010800FB136601E0642E0CDB6420A7
:1015F00096FBF0F3303302F8083096FBF0F308F175
:10160000010800FB136601E00A2E06DB96FBF1F0F1
:10161000303002F8080008F1010896FBF1F001FBF8
:101620001060303002F80800A16908F1010808EBE9
:10163000050202EB0A00081AA0612078C00602D455
:101640002046FFF73AF9216A08AE01EB0A00206252
:1016500004E0D4E9012116F8010B9047BAF1010A20
:10166000F7D22078C00602D52046FFF726F96E464D
:1016700009E016F8010B3E280FD0D4E9012190476C
:10168000206A401C2062B8F10108F2D22046FFF720
:101690002AF909B00320BDE8F08F206A28442062AF
:1016A00003E0D4E90121302090476D1EEBD3F8E729
:1016B00095B4020002FCFFFF10B5436913B1AFF30C
:1016C000008001E0FFF732F9012010BD127800F12F
:1016D00024010A7000224A700122EDE711684FF0E0
:1016E000FF32E9E710B5436913B1AFF3008001E0C1
:1016F000FFF7B4F9012010BD128800F124018284A3
:101700000022C2840122EDE711684FF0FF32E9E7C1
:101710002DE9F04116460C46054600F04BF80368EB
:1017200093F80101012807D0FF2C12D8185D80B171
:1017300001202C70BDE8F081D3F807013246214624
:1017400003F20713C7182846BC46BDE8F041002342
:1017500060474FF0FF30EDE710B500F0F7F8BDE857
:10176000104000F0EEB870477546FFF759FBAE46E3
:1017700005006946534620F00700854618B020B59D
:10178000FEF77CFEBDE820404FF000064FF000075A
:101790004FF000084FF0000BAC46ACE8C009ACE8D5
:1017A000C009ACE8C009ACE8C00921F007018D46CA
:1017B0007047000010B500F005F8001D10BD00BF17
:1017C00055B0020000487047900100202DE9F0411B
:1017D0001F46044603260168072A01F4006004DB63
:1017E00008B116A505E016A503E008B115A500E0AF
:1017F00015A521F010002060A069C01EA0610FB1E6
:10180000401EA0612046FFF758F84FB1D4E90121EE
:1018100038469047206A401C2062C01C206206E0C7
:10182000206AFAE7D4E9012115F8010B9047761EEA
:10183000F8D22046FFF757F8BDE8F0814E414E0040
:101840006E616E00494E4600696E66002DE9F047F4
:10185000814616468AB0354878440DC88DE80D009B
:1018600032487844801C03AC0DC884E80D0041F672
:101870009B300844372190FBF1F290FBF1F5A5F184
:10188000800501FB12041B3C02D56442012000E0EC
:101890000020DFF898A080460027FA44AAF1BE0A8B
:1018A0000EE0E0070AD03246684607EB4701012305
:1018B0000AEB81012AF034F98DE8070064107F1CDF
:1018C000002CEED1194F7F44AE3F19E0E80715D048
:1018D00007EB04100DF1180A90E80E008AE80E00DC
:1018E000C068F04201D1981908903246012306A938
:1018F00003A82AF015F903AB83E807006D10641CF8
:10190000002DE3D14FF0010332466946B8F1000FD4
:1019100003A802D02AF0EFF801E02AF001F9C9E9A2
:101920000001C9F808200AB0BDE8F08790B10200B4
:1019300010B50446AFF300802046BDE81040FEF726
:1019400088BD002801D000F029B8704710B50128E3
:1019500005D0002103A000F027F8012010BD09A147
:10196000F8E7000053494752544D454D3A204F7512
:1019700074206F662068656170206D656D6F727987
:10198000000000003A2048656170206D656D6F723F
:101990007920636F72727570746564000149182054
:1019A000ABBEFEE72600020070B505460C460A20D5
:1019B00000E06D1C00F052F835B128780028F8D10D
:1019C00002E0641C00F04AF814B120780028F8D135
:1019D000BDE870400A2000F041B80000000000009F
:1019E00030B44FF0013C50F8042BCCFA52F451F8CB
:1019F000043BD51A20D1FCB950F8042BCCFA52F490
:101A000051F8043BD51A17D1B4B950F8042BCCFACD
:101A100052F451F8043BD51A0ED16CB950F8042B8E
:101A2000CCFA52F451F8043BD51A05D1002CDAD087
:101A300030BC4FF00000704729BAB1FA81F111F0C3
:101A40001801D1F120008440F2D1CA40CB4012F0FD
:101A5000FF0213F0FF0330BCD01A704708B5694687
:101A60008DF800000320ABBE08BD000000000000A0
:101A700080B584B003900398006842F20001C4F27C
:101A80000201884209D0FFE70398006842F2001182
:101A9000C4F20201884209D1FFE742F20830C4F2E1
:101AA0000200006810F4403F09D129E046F20830F6
:101AB000C5F60200006810F4403F21D0FFE711F0A6
:101AC0007FFF029003984068B0F5803F01900AD0F4
:101AD000FFE70198B0F5003F05D0FFE70198B0F5AA
:101AE000403F07D00AE00398C0880299B1FBF0F0AC
:101AF000029004E002988008029000E0FFE75FE0B7
:101B00004FF4002000210FF01BFF02900398406863
:101B1000B0F5802F009032D0FFE70098B0F5002F8D
:101B20002DD0FFE70098B0F5402F28D0FFE70098B0
:101B3000B0F5801F23D0FFE70098B0F5A01F1ED09E
:101B4000FFE70098B0F5C01F19D0FFE70098B0F587
:101B5000E01F1FD0FFE70098B0F5001F1ED0FFE781
:101B60000098B0F5101F1DD0FFE70098B0F5201FBA
:101B70001CD0FFE70098B0F5301F1BD01EE0039883
:101B800040686FF0010101EA50400299B1FBF0F0AA
:101B9000029014E002980009029010E002984009B7
:101BA00002900CE002988009029008E00298C009B7
:101BB000029004E00298000A029000E0FFE7FFE7CD
:101BC000029840080290029845F61061C0F25F0149
:101BD000884209D8FFE703980068806820F44070C5
:101BE0000399096888602EE002984BF62041C0F204
:101BF000BE0188420AD8FFE7039800688068012187
:101C000061F309200399096888601BE0029847F690
:101C10004001C0F27D1188420AD8FFE703980068AE
:101C20008068022161F3092003990968886008E04F
:101C300003980068806840F44070039909688860E0
:101C4000FFE7FFE7FFE704B080BD000000000000F1
:101C500080B584B002900298006818F0F9F80090FE
:101C60000298006818F0FCF800284DD0FFE70098B3
:101C7000002849D1FFE702980068806800F00D0055
:101C8000012809D1FFE70298006818F085F802984A
:101C90000068032101600DE00298016E41F010011F
:101CA00001660298416E41F00101416601208DF804
:101CB0000F002DE00CF0F8FF0190FFE7029800689C
:101CC0008068C00700281ED0FFE70CF0EDFF0199E7
:101CD000401A032816D3FFE7029800688068C007FF
:101CE00000280ED0FFE70298016E41F01001016656
:101CF0000298416E41F00101416601208DF80F000C
:101D000006E0FFE7DAE7FFE700208DF80F00FFE7C6
:101D10009DF80F0004B080BD80B59EB01D9064207A
:101D200025F0A2FE00210F91B2EE040A9FEDE61A03
:101D30009FEDE62AF7EE001A9FEDE53AF0EE410A34
:101D40008DED0D1AB0EE421AB0EE432A0C9016F04B
:101D5000EFF841F25450C2F2004040F25831C2F262
:101D600000419DED0D0A25F097F9FFE7752015F06C
:101D7000C7FD43F62801C2F20341088015F078FD43
:101D800015F09AFD15F064FE40F68420C2F2004082
:101D9000B0F9001000EE101AB8EEC00A40F2D011EF
:101DA000C2F2000191ED001A30EE010A40F29052A9
:101DB000C2F2000292ED001A20EE010A40F2DC139A
:101DC000C2F2000383ED000AB0F902C000EE10CAAF
:101DD000B8EEC00A91ED011A30EE010A92ED001A38
:101DE00020EE010A83ED010AB0F9040000EE100AAA
:101DF000B8EEC00A91ED021A30EE010A92ED001A17
:101E000020EE010A83ED020A40F6C820C2F200402B
:101E1000B0F9001000EE101AB8EEC00A40F23C1102
:101E2000C2F2004191ED001A30EE010A92ED011A62
:101E300020EE010A40F6D02CC2F2004C8CED000AD4
:101E4000B0F902E000EE10EAB8EEC00A91ED011A16
:101E500030EE010A92ED011A20EE010A8CED010A22
:101E6000B0F9040000EE100AB8EEC00A91ED021AB3
:101E700030EE010A92ED011A20EE010A8CED020A01
:101E80009CED001A9CED010A9CED022AB1EE400A7D
:101E9000F1EE420A93ED002AD3ED011A93ED023AD6
:101EA000F1EE422A40F2A800C2F200000B90B0EE20
:101EB000432A0A93CDF824C019F00AFA099890ED44
:101EC000000A90ED011A90ED022AF1EE400A0A99FB
:101ED00091ED000AD1ED011AD1ED022AB1EE400ACE
:101EE0009FEDBA3A8DED080AB0EE410AB0EE421A03
:101EF0009DED082A16F0A0F90B98416810918168B1
:101F00001191C16812910168139140F26441C2F2CB
:101F100000010A1D01F1080325F0EAF914A90B9844
:101F200025F0CEF80A9890ED000A90ED011A90ED98
:101F3000022A9DED143A9DED154A9DED165A22EEAA
:101F4000442A01EE432A00EE052A40F69841C2F2E7
:101F5000004181ED002A90ED000A90ED011A90ED0C
:101F6000022A9DED173A9DED184A9DED195A22EE71
:101F7000442A01EE432A00EE052A81ED012A90ED64
:101F8000000A90ED011A90ED022A9DED1A3A9DED9E
:101F90001B4A9DED1C5A22EE042A01EE032A10EE84
:101FA000052A9FED8B0A32EE000A81ED020A0A68CB
:101FB00040F2A433C2F200031A604A685A6089688A
:101FC0009960416840F69022C2F20042116090EDA3
:101FD000000A099991ED021A21EE011A9FED7D2A5E
:101FE00011EE020A82ED010AD0F808C0C2F808C05A
:101FF00040F6E04CC2F2004C0CF5A87E10461946A3
:1020000072460793CDF818C000F0EEF8069890EDF0
:102010006A0A9FED711A80EE010A9FED702A20EE88
:10202000020A8DED051A8DED042A24F06FFA079847
:1020300090ED011A069991ED6A2A9DED053A82EE1E
:10204000032A9DED044A22EE042A8DED030AB0EE28
:10205000420A8DED021A24F0BDFD079890ED001A9A
:1020600020EE010A9DED031A9DED022A01EE420ABF
:102070008DED0E0A40F29411C2F2004191ED000A7A
:102080009FED572AB4EE420AF1EE10FA07DDFFE7A2
:1020900040F26010C2F200000021018035E040F201
:1020A0009410C2F2004090ED000A9FED4E1AB4EE7B
:1020B000410AF1EE10FA0DDAFFE740F26010C2F2C9
:1020C00000001B2101801FE06F12833A20BC3E4CB0
:1020D0000000000040F29410C2F2004090ED000AAF
:1020E0009FED401A31EE400AB1EE041AB3EE0B2A0E
:1020F00000EE012ABCEEC20A10EE100A40F2601196
:10210000C2F200010880FFE7FFE740F26010C2F270
:102110000000008842F2A801C2F200010968486389
:1021200041F68410C2F2000090ED000A41F2806096
:10213000C2F2004090ED001A30EE010AB0EE001A33
:1021400080EE010A40F6DC20C2F20040416881EDD9
:10215000000A9DED0E0A41F25451C2F20041019075
:102160000846009124F074FF00984168019A936832
:1021700019600F99B1F57A7F04D9FFE70F98013004
:102180000F90FFE741F29050C2F200400068002833
:1021900018D0FFE740F2A430C2F2000090ED010A2F
:1021A00041F62410C2F2000090ED001A31EE000A50
:1021B00080ED000A42F63020C2F2000001680131D1
:1021C0000160FFE7012025F04FFCCFE56F12833A55
:1021D000C3F51C4168221CBE00003443D00F4940A7
:1021E0000000204200000C4283B002900191009256
:1021F000009890ED000A90ED011A90ED022A90ED02
:10220000033AB6EE004AB0EE445A02EE425A03EEEA
:10221000435A029821EE026A00EE436A90ED007A7A
:10222000D0ED010AD0ED021A26EE206A05EE076A0B
:1022300020EE020A01EE030A00EE216A36EE060ADB
:10224000019880ED000A009890ED000A90ED011AC7
:1022500090ED022A90ED033A20EE035A01EE025A65
:102260000298B0EE446A01EE416A03EE436A90EDD3
:10227000007AD0ED010AD0ED021A26EE206A05EEB2
:10228000076A22EE032A00EE412A02EE216A36EEA8
:10229000060A019880ED010A009890ED000A90ED81
:1022A000011A90ED022A90ED033A21EE035A00EE56
:1022B000425A029820EE010A02EE030A90ED003A1B
:1022C00090ED016A90ED027A20EE060A05EE030A0F
:1022D00001EE414A02EE424A04EE070A30EE000ADD
:1022E000019880ED020A03B0704700000000000072
:1022F000FFE7FEE70000000084B0134684468DF837
:102300000F000291ADF806209DF80F00014623282A
:1023100000911DD80099DFE801F012131415161B67
:102320001B1B1B1B1B1B1B1B1B1B1B1B1B1B1B1BFD
:102330001B1B1B1B1B1B1B1B1B1B1718191A08E045
:1023400007E006E005E004E003E002E001E000E071
:10235000FFE7002004B07047002070470000000035
:1023600080B584B041F60820C2F2000041F240017D
:10237000C2F2000100220390029220F085FD40F697
:102380004001C2F20001039A0190104620F05CFD6A
:1023900002990090084604B080BD000000000000D3
:1023A00080B586B005900491059941F60820C2F2E7
:1023B0000000039020F048FD03990290084620F0A9
:1023C000E3FC00210190084606B080BD000000003B
:1023D00083B01346029001918DF8032000208DF800
:1023E00002009DF9020003B07047000000000000E9
:1023F00080B58EB08DED0D0ACDED0C0A8DED0B1A6A
:102400009DED0D0A9FED471A30EE010A8DED0D0A84
:102410009DED0C0A9FED441A30EE010A8DED0C0A79
:102420009DED0B0ABBEE021A30EE010A8DED0B0A90
:102430009DED0D0A9DED0B1AB1EE411A9FED3B2A61
:1024400081EE021A9FED3A3A21EE031A8DED080A49
:10245000B0EE410A8DED072A8DED063A24F056F8CC
:102460009DED081A21EE000A9DED0C1A9DED0B2A38
:10247000B1EE422A9DED073A82EE032A9DED064A0F
:1024800022EE042A8DED050AB0EE420A8DED041A03
:1024900024F0A0FB9DED051A9DED042A02EE401AE2
:1024A0008DED0A1A9DED0D0A9DED0B1AB1EE411A44
:1024B0009DED072A81EE021A9DED063A21EE031AE0
:1024C0008DED030AB0EE410A24F084FB9DED0C1A59
:1024D0009DED0B2AB1EE422A9DED073A82EE032ACA
:1024E0009DED064A22EE042A8DED020AB0EE420A64
:1024F0008DED011A24F00AF89DED011A21EE000A73
:102500009DED031A9DED022A01EE020A8DED090AE6
:102510009DED0A0ABDEEC00A10EE100A00F57070BB
:102520000EB080BD000070C4000016C3000034432C
:10253000DA0F49400000000080B58EB08DED0D0A25
:10254000CDED0C0A8DED0B1A9DED0D0A9FED471A8E
:1025500030EE010A8DED0D0A9DED0C0A9FED441A37
:1025600030EE010A8DED0C0A9DED0B0ABBEE021A4E
:1025700030EE010A8DED0B0A9DED0D0A9DED0B1A53
:10258000B1EE411A9FED3B2A81EE021A9FED3A3AD5
:1025900021EE031A8DED080AB0EE410A8DED072AEF
:1025A0008DED063A23F0B2FF9DED081A21EE000AE8
:1025B0009DED0C1A9DED0B2AB1EE422A9DED073AD6
:1025C00082EE032A9DED064A22EE042A8DED050ACD
:1025D000B0EE420A8DED041A24F0FCFA9DED051AC6
:1025E0009DED042A02EE401A8DED0A1A9DED0D0AAA
:1025F0009DED0B1AB1EE411A9DED072A81EE021AEC
:102600009DED063A21EE031A8DED030AB0EE410A64
:1026100024F0E0FA9DED0C1A9DED0B2AB1EE422A52
:102620009DED073A82EE032A9DED064A22EE042A2A
:102630008DED020AB0EE420A8DED011A23F066FF1D
:102640009DED011A21EE000A9DED031A9DED022A6F
:1026500001EE020A8DED090A9DED090ABDEEC00AE0
:1026600010EE100A96300EB080BD00BF000070C49E
:10267000000016C300003443DA0F49400000000098
:1026800083B08DED020A019000919DED020A20EECB
:10269000001A21EE002A009840F60001C2F2004123
:1026A00001EB8010019900EB011090ED003A90EDE4
:1026B000014A90ED025A90ED036A21EE041A02EEEF
:1026C000031A00EE051A31EE060A03B07047000047
:1026D00084B002A9024681ED000A8DF807009DF83A
:1026E00007000028009116D1FFE7009890ED000A3E
:1026F0009FED331A80EE010A9FED301A30EE010A89
:1027000040F27011C2F2004191ED001A30EE010A60
:1027100080ED010A4BE09DF80700012812D1FFE788
:10272000009890ED000A9FED261A80EE010A40F213
:10273000B801C2F2000191ED001A31EE000A80EDFD
:10274000010A34E09DF80700022816D1FFE700983F
:1027500090ED000A9FED181A80EE010A9FED171AFE
:1027600030EE010A40F27411C2F2004191ED001AFC
:1027700030EE010A80ED010A19E09DF807000328F8
:1027800012D1FFE7009890ED000A9FED0B1A80EE42
:10279000010A40F2BC01C2F2000191ED001A30EED4
:1027A000010A80ED010A02E000200390FFE7009893
:1027B00090ED010A04B070479A991141D00F494039
:1027C0009A9911C10000000080B582B0019000F01C
:1027D0000FF8FFE704F08CFD04F046F901F014F85F
:1027E000012025F041F90090F4E70000000000000E
:1027F00080B588B041F65400C2F2000000210160AB
:1028000041F2F050C2F20040016041F6BC00C2F259
:102810000000016041F22460C2F20040016043F216
:10282000EC10C2F20000016041F28060C2F2004090
:10283000016042F2EC20C2F20000016041F250500F
:10284000C2F20040016041F63810C2F2000001609F
:1028500041F27050C2F20040016041F63C10C2F2F9
:102860000000016043F6D800C2F20340016041F667
:102870008410C2F20000016042F29020C2F20040D7
:10288000016040F2EC50C2F200004CF6CD42C3F6BB
:10289000CC52026042F28020C2F200404CF28F2201
:1028A000C3F6F552026042F2D820C2F200004CF2A8
:1028B0008F22C3F67562026041F24850C2F20040B6
:1028C00049F69A12C3F61962026043F21C20C2F262
:1028D0000000016043F6F000C2F20340016042F2E2
:1028E0002040C2F200004EF68532C3F691720260BB
:1028F00042F69020C2F2000040F25812C2F20002EA
:102900009FED9A0A8DED070A06911146059224F073
:10291000C3FB42F66820C2F200409DED070A05990C
:1029200024F0BAFB42F68020C2F200009DED070AB7
:10293000059924F0B1FB42F65820C2F200409DED0B
:10294000070A059924F0A8FB41F67410C2F20000B2
:1029500040F2FC11C2F200419DED070A049124F0FF
:102960009BFB41F25C60C2F200409DED070A0499B6
:1029700024F092FB41F66010C2F200009DED070AC0
:10298000049924F089FB41F24860C2F200409DEDB9
:10299000070A049924F080FB41F69800C2F2000077
:1029A0009DED070A059924F077FB42F6DC10C2F290
:1029B000004042F25841C2F200019DED070A24F0A6
:1029C0006BFB43F2DC10C2F200009DED070A069992
:1029D00024F062FB41F27060C2F200409DED070AF4
:1029E000069924F059FB43F2F810C2F2000040F2BD
:1029F0005C11C2F200019DED070A039124F04CFB2B
:102A000041F28860C2F2004040F25031C2F200410F
:102A10009DED070A029124F03FFB43F20820C2F229
:102A200000009DED070A039924F036FB41F29860FF
:102A3000C2F200409DED070A029924F02DFB41F6F9
:102A40008800C2F2000042F25441C2F200019DED42
:102A5000070A019124F020FB41F2F450C2F2004039
:102A60009DED070A019924F017FB41F6A800C2F278
:102A700000009DED070A019924F00EFB41F204606D
:102A8000C2F200409DED070A019924F005FB42F2D5
:102A9000F820C2F200009DED070A019924F0FCFA2B
:102AA00042F2A820C2F200409DED070A019924F0ED
:102AB000F3FA41F64810C2F200009DED070A0199B1
:102AC00024F0EAFA41F23060C2F200409DED070ABC
:102AD000019924F0E1FA40F2BC30C2F200009DED11
:102AE000070A019924F0D8FA40F6B820C2F2004053
:102AF0009DED070A019924F0CFFA43F21810C2F2B3
:102B0000000040F25431C2F200419DED070A0091ED
:102B100024F0C2FA43F6E000C2F203409DED070A3A
:102B2000009924F0B9FA41F69410C2F2000040F284
:102B30004812C2F200029FED0E0ADFED0E0A06995E
:102B400019F02AFA42F6FC10C2F2004040F25C3260
:102B5000C2F200429FED080ADFED080A069919F05B
:102B60001BFA14F0F9FD08B080BD00BF6F12833A64
:102B7000000096430000C8420060EA4600409C45C1
:102B800080B5DEB040F20020C2F2000090ED010AF4
:102B90009FEDA51A20EE010A41F68811C2F200014C
:102BA00081ED000A90ED010A20EE010A41F2AC61CC
:102BB000C2F2004181ED000A90ED010A43F6F001F6
:102BC000C2F2034191ED001A9FED982A00EE021A1D
:102BD00081ED001A90ED010A43F21C20C2F20000C0
:102BE00090ED001A00EE021A80ED001A41F68410F2
:102BF000C2F2000090ED000A41F28861C2F2004189
:102C00005D90084624F024FA41F28060C2F2004050
:102C100090ED000A41F29861C2F200415C900846D2
:102C200024F016FA5D9890ED000AB7EEC00AB0EEF7
:102C3000C00B5C9991ED001AB7EEC11AB0EEC11B42
:102C4000B4EE410BF1EE10FA1FDDFFE741F28060B8
:102C5000C2F2004090ED000A40F27440C2F200005F
:102C600090ED031A9FED722A81EE021A9FED712AF0
:102C700021EE021A9FED702A01EE020A41F26C6009
:102C8000C2F2004080ED000A1EE041F68410C2F25C
:102C9000000090ED000A40F27440C2F2000090ED96
:102CA000031A9FED662A81EE021A9FED622A21EE39
:102CB000021A9FED612A01EE020A41F26C60C2F233
:102CC000004080ED000AFFE741F28860C2F2004058
:102CD000406800EE100A41F29860C2F2004040687D
:102CE00001EE100A30EE010AB0EE001A80EE010A81
:102CF00041F26C60C2F2004080ED000A43F6F00140
:102D0000C2F2034191ED000A43F21C21C2F200011C
:102D100091ED002A30EE020A80EE010A43F21821FA
:102D2000C2F2000181ED000A41F68811C2F20001F1
:102D300091ED000A41F2AC61C2F2004191ED002A2E
:102D400030EE020A80EE010A41F2A861C2F20041AF
:102D500081ED000A90ED000A43F6D801C2F203416A
:102D600091ED002A9FED313A00EE032A81ED002A11
:102D700090ED000A43F2EC10C2F2000090ED002A40
:102D800000EE032A80ED002A91ED000A43F2F811CB
:102D9000C2F200015B9008468DED5A1A599124F059
:102DA00057F95B9890ED000A43F20821C2F2000146
:102DB0000846589124F04CF95998416800EE101AD1
:102DC00058994A6801EE102A30EE010A9DED5A1A10
:102DD00080EE010A43F22C12C2F2000282ED000AD8
:102DE00041F62812C2F2000292ED000AB4EE410A46
:102DF000F1EE10FA0FDCFFE741F2C050C2F20040E2
:102E000090ED000AB0EE001AB4EE410AF1EE10FAAD
:102E100040F3FD80FFE740F20020C2F2000000789E
:102E2000052800F0F4800DE09A99193E6F12833A5C
:102E300000003443D00F49408FC2753E000034C3B8
:102E4000DA0F494041F22C30C2F20040002101600B
:102E500043F6D800C2F20340016043F6F000C2F22C
:102E60000340016042F27C20C2F2004090ED000A73
:102E700001225790104656915592FFF701FC41F2FE
:102E80005050C2F2004090ED001A579991ED002A7F
:102E90008DED540AB0EE420A559A539010461146F1
:102EA0008DED521AFFF7ECFB41F63810C2F200002C
:102EB00090ED001A20EE010A9DED541A9DED522A64
:102EC00001EE020A42F2D421C2F2000191ED002A81
:102ED00002228DED510AB0EE420A569B50901846E0
:102EE0004F9111464E92FFF7CBFB41F65400C2F2D0
:102EF000000090ED001A9DED512A00EE012A4F9935
:102F000091ED000A0322569B4D90184611468DED17
:102F10004C2A4B92FFF7B4FB41F2F050C2F2004052
:102F200090ED001A9DED4C2A00EE012AB1EE420A06
:102F300040F21461C2F2000181ED000A40F2086122
:102F4000C2F20001569A0A6043F2EC11C2F200018B
:102F50000A6043F21C21C2F200010A6043F2F81138
:102F6000C2F200014A6043F20821C2F200014A6045
:102F7000579991ED000A4E9B4A9018461146FFF76B
:102F80007FFB539890ED001A579991ED002A8DED33
:102F9000490AB0EE420A4E9855998DED481AFFF74E
:102FA0006FFB509890ED001A20EE010A9DED491A32
:102FB0009DED482A01EE020A4F9991ED002A8DED10
:102FC000470AB0EE420A4B984E99FFF759FB4D98CD
:102FD00090ED001A9DED472A00EE012A4F9991EDE0
:102FE000000A4B984B998DED462AFFF749FB4A980A
:102FF00090ED001A9DED462A00EE012AB1EE420A3C
:1030000041F24031C2F2004181ED000A6FE342F229
:103010007C20C2F2004090ED000A00214590084655
:103020004491FFF72DFB41F25050C2F2004090ED69
:10303000001A459991ED002A01228DED430AB0EE68
:10304000420A449B4290184611468DED411A409227
:10305000FFF716FB41F63810C2F2000090ED001A9F
:1030600020EE010A9DED431A9DED412A01EE020A70
:10307000459991ED002A04228DED3F0AB0EE420AF7
:10308000449B3E90184611463D92FFF7F9FA43F2F1
:103090002C10C2F2000090ED001A43F21821C2F287
:1030A000000191ED002A31EE021A9DED3F2A00EE5B
:1030B000012A459A92ED000A0523DDF810C13C90E3
:1030C00060463B9119468DED3A2A3993FFF7D8FABD
:1030D00041F26C60C2F2004090ED001A41F2A8612A
:1030E000C2F2004191ED002A31EE021A9DED3A2A1A
:1030F00000EE012A459A92ED000A0823DDF810C17E
:1031000038906046379119468DED362A3593FFF792
:10311000B7FA41F27050C2F2004090ED001A9DEDF6
:10312000362A00EE012A459991ED000A0922449BB6
:103130003490184611468DED332A3292FFF7A0FAEB
:1031400041F63C10C2F2000090ED001A9DED332ACA
:1031500000EE012A42F2D421C2F2000191ED000AF0
:103160000222449B31901846309111468DED2F2A52
:103170002E92FFF785FA41F65400C2F2000090ED5E
:10318000001A9DED2F2A00EE012A309991ED000AD8
:103190000322449B2D90184611468DED2C2A2B922C
:1031A000FFF76EFA41F2F050C2F2004090ED001AC3
:1031B0009DED2C2A00EE012A309991ED000A06229D
:1031C000449B2A90184611468DED292A2892FFF734
:1031D00057FA42F65420C2F2000090ED001A9DED1D
:1031E000292A00EE012A309991ED000A0722449B1A
:1031F0002790184611468DED262A2592FFF740FAB2
:1032000040F27440C2F2000090ED031A1FEDF82A5C
:1032100081EE021A40F20021C2F2000191ED033A60
:103220001FEDF94A01EE043A9DED261A00EE031A4D
:10323000B1EE410A41F22C32C2F2004282ED000AA4
:10324000459A92ED000A409B24901846DDF810C183
:10325000239161468DED222A8DED214AFFF710FA68
:10326000429890ED001A459991ED002A8DED200AC3
:10327000B0EE420A409840998DED1F1AFFF700FA10
:103280003E9890ED001A20EE010A9DED201A9DED6A
:103290001F2A01EE020A459991ED002A8DED1E0AC2
:1032A000B0EE420A40983D99FFF7EAF93C9890ED5C
:1032B000001A3B9991ED002A31EE021A9DED1E2A6B
:1032C00000EE012A459A92ED000A409839998DED59
:1032D0001D2AFFF7D5F9389890ED001A379991ED2E
:1032E000002A31EE021A9DED1D2A00EE012A459AB0
:1032F00092ED000A409835998DED1C2AFFF7C0F930
:10330000349890ED001A9DED1C2A00EE012A459993
:1033100091ED000A409832998DED1B2AFFF7B0F924
:10332000319890ED001A9DED1B2A00EE012A30998C
:1033300091ED000A40982E998DED1A2AFFF7A0F919
:103340002D9890ED001A9DED1A2A00EE012A309971
:1033500091ED000A40982B998DED192AFFF790F90D
:103360002A9890ED001A9DED192A00EE012A309955
:1033700091ED000A409828998DED182AFFF780F901
:10338000279890ED001A9DED182A00EE012A309939
:1033900091ED000A409825998DED172AFFF770F9F5
:1033A000249890ED031A9DED222A81EE021A2399AA
:1033B00091ED033A9DED214A01EE043A9DED171A75
:1033C00000EE031AB1EE410A40F21462C2F20002AA
:1033D00082ED000A459A92ED000A2E984499FFF773
:1033E0004FF9429890ED001A459991ED002A8DED24
:1033F000160AB0EE420A2E9840998DED151AFFF785
:103400003FF93E9890ED001A20EE010A9DED161A44
:103410009DED152A01EE020A459991ED002A8DEDE8
:10342000140AB0EE420A2E983D99FFF729F93C980C
:1034300090ED001A3B9991ED002A31EE021A9DEDB4
:10344000142A00EE012A459A92ED000A2E98399925
:103450008DED132AFFF714F9389890ED001A37997B
:1034600091ED002A31EE021A9DED132A00EE012A99
:10347000309A92ED000A2E9835998DED122AFFF7B9
:10348000FFF841F6BC00C2F2000090ED001A9DED7D
:10349000122A00EE012A309991ED000A2E9A11901D
:1034A000104632998DED102AFFF7EAF841F22460B8
:1034B000C2F2004090ED001A9DED102A00EE012AA4
:1034C000309991ED000A2E9A0F90104611468DED1D
:1034D0000E2AFFF7D5F82D9890ED001A9DED0E2AD3
:1034E00000EE012A309991ED000A2E982B998DED6E
:1034F0000D2AFFF7C5F82A9890ED001A9DED0D2AC8
:1035000000EE012A309991ED000A2E9828998DED50
:103510000C2AFFF7B5F8279890ED001A9DED0C2ABC
:1035200000EE012A309991ED000A2E9825998DED33
:103530000B2AFFF7A5F8249890ED031A9DED222A97
:1035400081EE021A239991ED033A9DED214A01EE95
:10355000043A9DED0B1A00EE031AB1EE410A40F257
:103560000862C2F2000282ED000A459A92ED000A5A
:103570002B984499FFF784F8429890ED001A4599EA
:1035800091ED002A8DED0A0AB0EE420A2B9840997F
:103590008DED091AFFF774F83E9890ED001A20EEB1
:1035A000010A9DED0A1A9DED092A01EE020A4599CC
:1035B00091ED002A8DED080AB0EE420A2B983D9954
:1035C000FFF75EF83C9890ED001A3B9991ED002AC8
:1035D00031EE021A9DED082A00EE012A459A92ED7D
:1035E000000A2B9839998DED072AFFF749F838988A
:1035F00090ED001A379991ED002A31EE021A9DEDF7
:10360000072A00EE012A309A92ED000A2B9835998C
:103610008DED062AFFF734F8119890ED001A9DED14
:10362000062A00EE012A309991ED000A2B98329972
:103630008DED052AFFF724F80F9890ED001A9DED07
:10364000052A00EE012A309991ED000A2B982E9957
:103650008DED042AFFF714F82D9890ED001A9DEDDA
:10366000042A00EE012A309991ED000A2B982B993B
:103670008DED032AFFF704F82A9890ED001A9DEDCE
:10368000032A00EE012A309991ED000A2B9828991F
:103690008DED022AFEF7F4FF279890ED001A9DEDBC
:1036A000022A00EE012A309991ED000A2B98259903
:1036B0008DED012AFEF7E4FF249890ED031A9DEDAD
:1036C000222A81EE021A239991ED033A9DED214AB7
:1036D00001EE043A9DED011A00EE031AB1EE410A23
:1036E00041F24032C2F2004282ED000AFFE742F2AC
:1036F0006C20C2F2004090ED000A40F2B430C2F2F9
:10370000000090ED001A42F2C421C2F2000191EDD6
:10371000002A40F21461C2F2000191ED003A22EE5B
:10372000032A00EE012A9FED360A82EE001A41F2CA
:103730003032C2F2004282ED001A42F27422C2F22A
:10374000004292ED001A90ED002A42F2CC20C2F223
:10375000000090ED003A91ED004A23EE043A01EEAC
:10376000023A83EE001A40F20060C2F2000080EDDF
:10377000001A42F2C020C2F2000090ED001A40F29E
:10378000B830C2F2000090ED002A42F27021C2F27D
:10379000004191ED003A41F24031C2F2004191ED19
:1037A000004A23EE043A01EE023AB1EE431A81EEEA
:1037B000001A41F23832C2F2004282ED001A42F29F
:1037C000C822C2F2000292ED001A90ED002A42F2E5
:1037D0007820C2F2004090ED003A91ED004A23EECD
:1037E000043A01EE023AB1EE431A81EE000A40F2C9
:1037F0000C60C2F2000080ED000A5EB080BD00BF28
:103800009A9911410000000010B58CB041F61C10CF
:10381000C2F2000001680131016043F6D800C2F233
:10382000034090ED000A43F2EC10C2F2000090ED6C
:10383000001A30EE010AB0EE001A80EE010A8DED9A
:103840000B0A41F68410C2F2000090ED000A41F22A
:103850008060C2F2004090ED002A30EE020A80EE55
:10386000010A8DED090A099841F26C51C2F200413A
:10387000086043F6F000C2F2034090ED000A43F204
:103880001C20C2F2000090ED002A30EE020A80EE09
:10389000010A8DED0A0A41F61810C2F20000007804
:1038A00000283BD1FFE701F0BBFD00F0D5FD43F25E
:1038B0002810C2F200000021016040F6A440C2F2CC
:1038C0000040016040F27040C2F20000016041F22D
:1038D0003030C2F20040016040F20060C2F20000ED
:1038E000016041F23830C2F20040016040F20C60E9
:1038F000C2F20000016042F25C20C2F200400022ED
:10390000C4F28C22026042F2B420C2F200000260D3
:1039100042F26020C2F200400160FFE741F6181059
:10392000C2F200000078012848D1FFE741F23030B0
:10393000C2F2004049F69A11C3F69961016040F263
:103940000060C2F2000049F69A12CBF6996202605A
:1039500041F23830C2F20040026040F20C60C2F224
:103960000000016040F2F810C2F2004090ED000A41
:1039700041F28061C2F2004191ED001A20EE410A4D
:1039800040F6A441C2F2004181ED000A90ED000A28
:1039900041F68410C2F2000090ED001A20EE010AF8
:1039A00040F27040C2F2000080ED000A42F2B820FE
:1039B000C2F20000016801310160FFE741F6181012
:1039C000C2F200000078022840F09F80FFE79DEDE2
:1039D0000B0A9DED0A1A30EE010A40F27C10C2F289
:1039E000004090ED001A9DED092A40F20020C2F23D
:1039F000000090ED013A32EE032A40F2C400C2F218
:103A0000000090ED003A22EE032A00EE012A42F671
:103A1000F410C2F2004080ED002A43F22811C2F2F5
:103A2000000100220A6040F27812C2F2004292EDD8
:103A3000000A41F6BC03C2F2000393ED001A90EDB8
:103A4000002A31EE021A40F2C00CC2F2000C9CEDCA
:103A5000002A41F2246EC2F2004E9EED003A22EEA0
:103A6000032A00EE012A91ED000A32EE000A40F628
:103A7000A444C2F2004484ED000A92ED000A93EDE2
:103A8000001A90ED002A31EE021A20EE410A9CED58
:103A9000001A9EED002A01EE420A91ED001A30EE66
:103AA000010A40F27040C2F2000080ED000A41F2CB
:103AB0003030C2F2004049F69A11C3F699610160B4
:103AC00040F20060C2F2000049F69A12CBF6996209
:103AD000026041F23830C2F20040026040F20C60F5
:103AE000C2F20000016042F2B820C2F20000016898
:103AF0000131016040F27440C2F20000006840F2FF
:103B0000B031C2F200010860FFE741F61810C2F2BE
:103B100000000078032809D0FFE741F61810C2F230
:103B2000000000780528C0F25383FFE741F6181023
:103B3000C2F200000078052808DBFFE742F2B82057
:103B4000C2F20000016801310160FFE741F6181080
:103B5000C2F200000078032808D0FFE741F61810F1
:103B6000C2F20000007807280BD1FFE740F25410A2
:103B7000C2F20000006842F2B821C2F200410860BF
:103B8000FFE741F61810C2F20000007805280AD1BC
:103B9000FFE742F2B820C2F200404CF6CD41C3F636
:103BA000CC510160FFE741F61810C2F20000007826
:103BB00007280AD1FFE742F2B820C2F200404CF2D7
:103BC0008F21C3F6F5510160FFE740F20020C2F2F9
:103BD00000000078032830D1FFE740F20020C2F255
:103BE000000090ED030AB7EEC00AB0EEC00BB1EED4
:103BF000081BB4EE410BF1EE10FA0DDAFFE740F2CC
:103C00000020C2F2000090ED030A9FEDB91A30EED9
:103C1000010A80ED030AFFE740F20020C2F2000033
:103C200090ED030A9FEDB31A20EE010A42F65420EC
:103C3000C2F2000080ED000AFFE740F20020C2F26D
:103C400000000078022808D0FFE740F20020C2F20E
:103C500000000078052875D1FFE740F22810C2F275
:103C6000004090ED000A41F64000C2F2000090EDE5
:103C7000031A9FEDA12A71EE420A31EE021A079053
:103C80008DED062A23F0A0FC41F2B860C2F200409C
:103C900080ED000A40F20021C2F200010022CA6059
:103CA00090ED000A079890ED031A30EE410A9FED5F
:103CB000931A20EE010A9DED061A80EE010A42F6E3
:103CC0005421C2F2000181ED000A91ED000A9FED3E
:103CD0008C2AB4EE420AF1EE10FA0ADDFFE742F652
:103CE0005420C2F200004CF6CD41C3F64C71016085
:103CF000FFE742F65420C2F2000090ED000A9FED6B
:103D0000811AB4EE410AF1EE10FA0ADAFFE742F640
:103D10005420C2F200004CF6CD41CBF64C7101604C
:103D2000FFE742F65420C2F2000090ED000AB1EE27
:103D3000021A20EE010A40F20020C2F2000080EDDB
:103D4000030AFFE740F20020C2F2000000780128D9
:103D500075D1FFE740F22810C2F2004090ED000A52
:103D60009FED691A30EE010A41F64000C2F20000F0
:103D700090ED031A9FED602A71EE420A31EE021AAD
:103D800005908DED042A23F01FFC41F2B860C2F2C9
:103D9000004080ED000A40F20021C2F20001002242
:103DA000CA6090ED000A059890ED031A30EE410AC2
:103DB0009FED521A20EE010A9DED041A80EE010AD1
:103DC00042F65421C2F2000181ED000A91ED000A91
:103DD000B6EE002AB4EE420AF1EE10FA08DDFFE773
:103DE00042F65420C2F200004FF07C510160FFE720
:103DF00042F65420C2F2000090ED000ABEEE001A16
:103E0000B4EE410AF1EE10FA08DAFFE742F6542068
:103E1000C2F200004FF03F410160FFE742F654203C
:103E2000C2F2000090ED000AB1EE021A20EE010A83
:103E300040F20020C2F2000080ED030AFFE740F2EA
:103E40007440C2F2000090ED020A90ED051AB7EE40
:103E5000C00A9FED2F2B20EE020B9FED2F3B80EE33
:103E6000030B40F2F400C2F2000090ED004AB7EEFE
:103E7000C44A42F26020C2F2004090ED005AB7EE10
:103E8000C55A00EE045BB7EEC10A20EE020B80EECD
:103E9000030B40F2F000C2F2000090ED001AB7EE02
:103EA000C11A00EE415BB7EEC50B8DED080A41F279
:103EB000C050C2F2004090ED000AB5EE400AF1EEAB
:103EC00010FA60DCFFE741F62810C2F2000090ED26
:103ED000000AB5EE400AF1EE10FA54DCFFE740F2BA
:103EE0000020C2F20000007803284CD024E000BF7C
:103EF0008FC2753C6F12833A00003443D00F49C023
:103F0000CDCC4C3FCDCC4CBF0000B44200BF00BF75
:103F10001F85EB51B81E094000000000008066407C
:103F2000AE47E1BD00BF00BF000000C0F528BC3FA8
:103F3000000000400AD7D33F40F27440C2F20000B4
:103F400090ED020AB7EEC00A1FED0F1B20EE010B29
:103F50001FED0F1B80EE010B40F28C10C2F20040EF
:103F600090ED001AB7EEC11A42F26020C2F2004092
:103F700090ED002AB7EEC22A00EE012BB7EEC20B7D
:103F800080ED000AFFE7089840F6A841C2F2004120
:103F9000086040F27440C2F2000090ED020AB7EEF1
:103FA000C00A1FED251B20EE010B1FED252B80EE17
:103FB000020B40F2F401C2F2000191ED003AB7EEBB
:103FC000C33A20EE030BB7EEC00B40F2E851C2F249
:103FD000000181ED000A90ED050AB7EEC00A20EE5F
:103FE000010B80EE020B40F2F000C2F2000090EDF7
:103FF000001AB7EEC11A20EE010BB7EEC00B40F667
:10400000B020C2F2004080ED000A9DED080AB7EE34
:10401000C00AB0EEC00B42F2B820C2F2004090EDF0
:10402000001A1FED412A31EE021AB7EEC11AB4EEA2
:10403000410BF1EE10FA3FDDFFE79DED080AB7EE08
:10404000C00AB0EEC00B1FED481B30EE010B1FED98
:10405000481BB4EE410BF1EE10FA06DDFFE74CF61B
:10406000CD40C3F64C600890FFE79DED080AB7EE1F
:10407000C00AB0EEC01B1FED542B31EE021B31EE17
:10408000000BB7EEC00B42F20830C2F2000080ED28
:10409000000A9DED080AB7EEC00AB0EEC01B31EE73
:1040A000021B31EE400BB7EEC00B42F2BC20C2F255
:1040B000004080ED000A1CE042F2B820C2F200404D
:1040C00090ED000A9DED081A30EE010A42F2083127
:1040D000C2F2000181ED000A90ED000A9DED081A80
:1040E00030EE410A42F2BC20C2F2004080ED000AEC
:1040F000FFE701F095F900F0AFF9FEF741FD41F25D
:10410000C050C2F2004090ED000AB0EE001AB4EECA
:10411000410AF1EE10FA0FDDFFE740F20020C2F293
:1041200000000078052807D0FFE740F6A440C2F25F
:1041300000400021016016E040F20860C2F2000079
:1041400090ED000A43F22810C2F2000090ED001A30
:104150009FEDBA2A00EE021A40F6A440C2F20040D7
:1041600080ED001AFFE741F62810C2F2000090ED42
:10417000000AB0EE001AB4EE410AF1EE10FA0FDDBB
:10418000FFE740F20020C2F200000078052807D0C7
:10419000FFE740F27040C2F200000021016016E02B
:1041A00041F22C30C2F2004090ED000A43F2281098
:1041B000C2F2000090ED001A9FEDA12A00EE021A53
:1041C00040F27040C2F2000080ED001AFFE7FFE706
:1041D00041F61810C2F200000078042840F0AD80CB
:1041E000FFE741F23030C2F2004049F69A11C3F6BF
:1041F0009961016040F20060C2F2000049F69A1233
:10420000CBF69962026041F23830C2F2004002609F
:1042100040F20C60C2F20000016040F22810C2F2CD
:10422000004090ED000A41F64000C2F2000090ED1F
:10423000031A9FED812A71EE420A31EE021A0390B1
:104240008DED022A23F0C0F941F2B860C2F20040BD
:1042500080ED000A039991ED030AD0ED000A41F6C2
:104260009410C2F2000017F06FFD9FED761A20EE59
:10427000010A9DED021A80EE010A40F20020C2F20E
:10428000000080ED030A40F6C061C2F20041B1F9BE
:10429000021040F29852C2F20002B2F90220114418
:1042A000494200EE101AB8EEC00A9FED672A20EED0
:1042B000020A90ED032AF1EE420A42F6FC11C2F224
:1042C00000410190084617F03FFD43F22810C2F26A
:1042D000000080ED000A40F2F811C2F2004191EDB9
:1042E000000A41F28062C2F2004292ED001A019A85
:1042F00092ED012A31EE021A90ED002A00EE412AD9
:1043000040F6A443C2F2004383ED002A91ED000A77
:1043100041F68411C2F2000191ED001A92ED012ADA
:1043200031EE021A90ED002A00EE012A40F27040B0
:10433000C2F2000080ED002AFFE740F6A440C2F27E
:10434000004090ED000A9FED411AB4EE410AF1EEF3
:1043500010FA0ADDFFE740F6A440C2F200404FF633
:104360000041C4F27F610160FFE740F6A440C2F261
:10437000004090ED000A9FED361AB4EE410AF1EECE
:1043800010FA0ADAFFE740F6A440C2F200404FF606
:104390000041CCF27F610160FFE740F27040C2F261
:1043A000000090ED000A9FED291AB4EE410AF1EEEB
:1043B00010FA0ADDFFE740F27040C2F200004FF64B
:1043C0000041C4F27F610160FFE740F27040C2F239
:1043D000000090ED000A9FED1E1AB4EE410AF1EEC6
:1043E00010FA0ADAFFE740F27040C2F200004FF61E
:1043F0000041CCF27F610160FFE740F27040C2F201
:10440000000090ED000AB1EE400ABDEEC00A10EEC9
:10441000100A40F6A441C2F2004191ED000AB1EE4B
:10442000400ABDEEC00A10EE101A00B209B204F044
:10443000FBF90CB010BD00BF0000344300A02A45BA
:1044400000A02AC5D00F49400742B23A00FC7F467F
:1044500000FC7FC6000000002DE9F047DAB042F60C
:104460004820C2F2004090ED000A42F68021C2F2DC
:104470000001509008464F9122F0EAFD4F984168A4
:1044800042F65C22C2F20002116042F6A421C2F29E
:10449000000191ED000A42F65823C2F2004318468B
:1044A0004E924D914C9322F0D3FD4C98416842F6C8
:1044B0005422C2F20042116041F65C11C2F20001C6
:1044C00091ED000A41F66011C2F2000108464B92DC
:1044D0004A9122F0BDFD4A98416841F65812C2F255
:1044E0000002116041F24461C2F2004191ED000A04
:1044F00041F24861C2F2004108464992489122F0D7
:10450000A7FD4898416841F24062C2F20042116042
:10451000509991ED000A479221F0F8FF41F62010E2
:10452000C2F2000080ED000A4D9991ED000A46901C
:1045300021F0ECFF41F2BC50C2F2004080ED000AD5
:10454000509991ED000A459022F044FB42F61C2060
:10455000C2F2000080ED000A4D9991ED000A4490EE
:1045600022F038FB42F6D410C2F2004080ED000A7F
:1045700042F28021C2F2004191ED000A469A92ED8A
:10458000001A41F24853C2F2004393ED002AB0EE04
:10459000003A82EE032A10EE012A43F2F01CC2F226
:1045A000000C8CED002A91ED000ADDF810E19EED83
:1045B000001A20EE010A43F6F404C2F2034484ED2B
:1045C000000A93ED000A80EE030A91ED001A459B64
:1045D00093ED002A01EE020A43F2F415C2F200053F
:1045E00085ED000A91ED000A90ED001A20EE010A17
:1045F00043F6F800C2F2034080ED000A95ED000A90
:104600009CED001A30EE410A90ED001A94ED002A5C
:1046100031EE421A21EE011A00EE001AB0EE410A04
:1046200043918DED423ACDF804C140943F953E90C0
:1046300018F0F6F842F2F420C2F2000080ED000A11
:1046400042F2D821C2F2000191ED000A30EE000AD8
:104650003F9A92ED001A419B93ED002A31EE421AE7
:1046600020EE010A40F6802CC2F2004C8CED000ACC
:1046700091ED000A30EE000ADDF8F8E09EED001A38
:10468000409C94ED002A31EE421A20EE010A40F2DD
:10469000EC15C2F2000585ED000A90ED000A20EE4F
:1046A000000A40F6A820C2F2004080ED000A95ED15
:1046B000000A9CED001A20EE002A01EE012A90ED7E
:1046C000001A01EE412A8DED3D0AB0EE420A3C91FE
:1046D000CDF8ECC03A9018F0A3F89DED3D1A31EEFC
:1046E000000AB7EEC00A3B9890ED002A3A9991ED86
:1046F000003A32EE032AB7EEC21A27F081FD30EEFF
:10470000000BB7EEC00B42F6A020C2F2000080ED15
:10471000000A409991ED000A3E9A92ED001A30EE9F
:10472000410A3C9B93ED001A90ED002A8DED390A69
:10473000B0EE420A38908DED371A22F04BFA9DED1B
:10474000391A9DED372A02EE001AB7EEC10A4198D8
:1047500090ED001A3F9991ED002A31EE421A3C9AF1
:1047600092ED002A389B93ED003A8DED340BB0EEBC
:10477000430A8DED331A8DED322A21F0C7FE9DEDEF
:10478000331A9DED322A02EE001AB7EEC11A9DEDE2
:10479000340B27F035FDB7EEC00B42F65020C2F2C5
:1047A000004080ED000A389991ED000A90ED001A62
:1047B00030EE410A319022F00DFA42F62020C2F28A
:1047C000000080ED000A419991ED000A3C9A92EDBB
:1047D000001A389B93ED002A8DED300AB0EE420AA4
:1047E0002F908DED2E1A21F091FE9DED301A9DED4A
:1047F0002E2A02EE001A43F6DC00C2F2034080EDDE
:10480000001A409991ED000A3C9A92ED001A389BEB
:1048100093ED002A8DED2D0AB0EE420A2C908DED1D
:104820002B1A22F0D7F99DED2D1A9DED2B2A02EEC1
:10483000001A43F22020C2F2000080ED001A90ED31
:10484000000AB7EEC00A2C9991ED001AB7EEC11A12
:104850002A9027F0D5FCB7EEC00B42F64420C2F2F6
:10486000004080ED000A2C9991ED000A2A9A92ED01
:10487000001A21EE011A00EE001AB0EE410A29904A
:1048800017F0CEFF42F2D020C2F2000080ED000A05
:10489000439991ED000A4E9A92ED001A389B93EDE0
:1048A000002A31EE421A8DED280AB0EE410A279017
:1048B00022F090F99DED281A21EE000A319890ED32
:1048C000001A8DED260AB0EE410A22F083F99DED23
:1048D000261A21EE000A2F9890ED001A80EE010AA8
:1048E000499991ED001A439A92ED002A319B93ED7C
:1048F000003ADDF82CC19CED004A33EE443A8DEDD0
:10490000250AB0EE430A8DED241A8DED232A22F0FC
:1049100061F99DED231A21EE000A389890ED001AF6
:104920008DED220AB0EE410A22F054F99DED221AD3
:1049300021EE000A2F9890ED001A80EE010A4799A7
:1049400091ED001A20EE010A9DED251A9DED242A15
:1049500001EE020A41F28462C2F2004282ED000AD4
:10496000439B93ED000ADDF838C19CED001ADDF899
:10497000E0E09EED002A31EE421A8DED210AB0EE04
:10498000410A209222F026F99DED211A21EE000A1B
:10499000319890ED001A8DED1F0AB0EE410A21F01A
:1049A000B5FD9DED1F1A21EE000A2F9890ED001A1B
:1049B00080EE010A499991ED001A20EE010A439A0E
:1049C00092ED001A319B93ED002ADDF82CC19CED8D
:1049D000003A32EE432A8DED1E0AB0EE420A8DED0A
:1049E0001D1A22F0F7F89DED1D1A21EE000A3898E5
:1049F00090ED001A8DED1C0AB0EE410A21F086FD03
:104A00009DED1C1A21EE000A2F9890ED001A80EE01
:104A1000010A479991ED001A9DED1E2A00EE412AE8
:104A200041F68C12C2F2000282ED002A439B93ED04
:104A3000000ADDF838C19CED001ADDF8E0E09EEDDB
:104A4000002A31EE421A8DED1B0AB0EE410A1A928D
:104A500022F0C0F89DED1B1A21EE000A319890ED6E
:104A6000001A8DED190AB0EE410A22F0B3F89DED5F
:104A7000191A21EE000A2F9890ED001A80EE010A13
:104A800041F2E051C2F2004191ED001A439991EDDB
:104A9000002A319A92ED003A4B9B93ED004A33EE97
:104AA000443A8DED180AB0EE430A8DED171A8DEDDC
:104AB000162A22F08FF89DED161A21EE000A38987A
:104AC00090ED001A8DED150AB0EE410A22F082F841
:104AD0009DED151A21EE000A2F9890ED001A80EE38
:104AE000010A41F62C11C2F2000191ED001A20EEEC
:104AF000010A9DED181A9DED172A01EE020A41F6F2
:104B00003411C2F2000181ED000A41F22C61C2F2BF
:104B100000410A6842F2DC23C2F200031A602C9AB8
:104B200092ED000ADDF880C09CED001ADDF8A8E0E7
:104B30009EED002A1A9C94ED003A22EE032A00EE24
:104B4000012A279D95ED000A82EE000A81ED000AF8
:104B500091ED000A41F64816C2F200063046149163
:104B60001393129622F074FA12984168149A116005
:104B7000209991ED000A2A9B93ED001A20EE010A7C
:104B8000DDF8B0C09CED002ADDF868E09EED003A4B
:104B900002EE430A21EE011A02EE021A80EE010A29
:104BA00041F63C14C2F2000494ED001A30EE410AC2
:104BB00041F63814C2F2000484ED000A41F2705547
:104BC000C2F2004595ED000A299E96ED001A30EEDE
:104BD000010A9FEDFB1A31EE400A41F25057C2F232
:104BE000004787ED000ADDF89C80D8F8009042F27B
:104BF0007C2AC2F2004ACAF8009098ED000A42F2FC
:104C0000F829C2F200094846119410950F97CDF883
:104C1000389022F01DFA0E984168279A11600F997A
:104C200091ED000A41F68803C2F2000318460D9385
:104C300022F00EFA0D9841680F9A1160119991EDCA
:104C4000000A41F2F453C2F2004318460C9322F0DA
:104C5000FFF90C984168119A1160439991ED000A8F
:104C6000299B93ED001ADDF8C4C09CED002A31EEBB
:104C7000421A8DED0B0AB0EE410A21F0ABFF9DED1B
:104C80000B1A21EE000A4E9890ED001A389991ED1A
:104C9000002A31EE421A8DED0A0AB0EE410A21F0E7
:104CA00099FF9DED0A1A21EE000A2F9890ED001A47
:104CB000B1EE411A80EE010A8DED590A439991ED4A
:104CC000000A299A92ED001A319B93ED002A31EEE9
:104CD000421A8DED090AB0EE410A21F017FC9DED54
:104CE000091A21EE000A4E9890ED001A389991EDBC
:104CF000002A31EE421A8DED080AB0EE410A21F089
:104D000069FF9DED081A21EE000A279890ED001A20
:104D10002F9991ED002A22EE411A80EE010A8DEDC5
:104D2000580A439A92ED000A299B93ED001ADDF888
:104D3000E0C09CED002A31EE421A8DED070AB0EE7C
:104D4000410A21F047FF9DED071A21EE000A319834
:104D500090ED001A4B9991ED002A31EE421A8DED3B
:104D6000060AB0EE410A21F035FF9DED061A21EE4C
:104D7000000A2F9890ED001AB1EE411A80EE010A58
:104D80008DED570A439991ED000A299A92ED001A88
:104D9000389B93ED002A31EE421A8DED050AB0EEF4
:104DA000410A21F0B3FB9DED051A21EE000A31986E
:104DB00090ED001A4B9991ED002A31EE421A8DEDDB
:104DC000040AB0EE410A21F005FF9DED041A21EE20
:104DD000000A279890ED001A2F9991ED002A22EEF3
:104DE000411A80EE010A8DED560A599A42F26C235F
:104DF000C2F200431A60589A42F2C423C2F200037E
:104E00001A60579A42F27423C2F200431A60569A0B
:104E100042F2CC23C2F200031A600F9A92ED000A0C
:104E200021F074FB8DED530A0F9890ED000A21F0EC
:104E3000D1FE8DED540A9DED590A9DED561A20EED6
:104E4000010A9DED581A9DED572A01EE420A8DED9B
:104E5000550A9DED560A41F23430C2F2004090ED01
:104E6000001A20EE010A9DED581A40F20461C2F2C8
:104E7000000191ED002A01EE420A9FED521A20EE48
:104E8000010A9DED552A80EE020A8DED520A9DED34
:104E9000590A90ED002A20EE020A9DED572A91ED65
:104EA000003A02EE430A20EE010A9DED551A80EE0B
:104EB000010A8DED510A9DED520A9DED531A9DEDAB
:104EC000512A9DED543A22EE032A279890ED003A9C
:104ED00082EE032A00EE012A40F2DC51C2F2000108
:104EE00081ED002A91ED000A42F22041C2F2000158
:104EF00091ED001A40F2DC11C2F2000191ED012A9D
:104F00009DED533A119991ED004A23EE045A25EE96
:104F1000045A90ED006A05EE062A9DED545A26EEDD
:104F2000056A41F2EC52C2F2004292ED007A34EE90
:104F3000477A26EE076A9FED247A06EE072A149B2D
:104F400093ED006A76EE060A20EE844A04EE052A06
:104F5000DDF84CC09CED004A34EE464A23EE043A9C
:104F600003EE072A01EE020A40F6B42EC2F2004E0A
:104F70008EED000A9EED000A40F2BC34C2F200043D
:104F800020460392CDF808E0019422F061F80198E0
:104F90004168029A11600F990B6841F24C5CC2F2B1
:104FA000004CCCF80030119BD3F800C0DDF80CE0C9
:104FB000CEF800C043F6D80CC2F2034C00F006B89D
:104FC000F90FC93F9A99114100007A449CED000AFB
:104FD00043F2EC1CC2F2000C9CED001A30EE010A08
:104FE0009DED421A80EE010A43F22C1CC2F2000C25
:104FF0008CED000A41F68414C2F2000494ED000A1C
:1050000041F28064C2F2004494ED002A30EE020ABC
:1050100080EE010A41F26C64C2F2004484ED000AA1
:1050200043F2DC15C2F200056D68CCF8005041F285
:10503000706CC2F2004CDCF804C0C4F800C0DDF8AB
:1050400040C0DCF8004041F6B805C2F200052C6013
:1050500041F28C54C2F200442468012C1DD1FFE7B8
:1050600041F25050C2F2004090ED000AB7EEC00A83
:1050700043F22C10C2F2000090ED001AB7EEC11AF4
:10508000B6EE002B01EE020BB7EEC00B41F24C5016
:10509000C2F2004080ED000AFFE741F63C10C2F288
:1050A0000000006841F22061C2F20041086042F64F
:1050B0005020C2F20040006842F2E021C2F200013A
:1050C000086042F22040C2F2000090ED000A40F277
:1050D000DC10C2F2000090ED011A9DED532A41F65A
:1050E0003810C2F2000090ED003A22EE034A24EE9E
:1050F000034A42F2D020C2F2000090ED005A04EEC2
:10510000051A9DED544A25EE045A41F2EC51C2F2C3
:10511000004191ED006A33EE466A25EE065A9FED96
:10512000BA6A05EE061A41F22C61C2F2004191ED15
:10513000005A35EE057A27EE033A03EE041A42F2DE
:10514000DC21C2F2000191ED003A33EE453A22EE45
:10515000032A02EE061A20EE010A42F2A021C2F250
:10516000004181ED000A41F25051C2F2004191ED3F
:10517000000A009021F0CAF9009890ED001A21EE83
:10518000000A80ED000A41F61811C2F20001097808
:10519000062917D1FFE742F27C20C2F2004090EDD1
:1051A000000A9FED9C1A31EE400A9FED9B1A9FED7D
:1051B0009B2A00EE012A40F2B430C2F2000080EDDA
:1051C000002AEAE041F61810C2F200000078072831
:1051D00033D0FFE742F20830C2F2000090ED000A3F
:1051E00042F2D020C2F2000090ED001A30EE410AE7
:1051F00040F28410C2F2004090ED002A42F2B42046
:10520000C2F2000090ED003A00EE023A42F288202D
:10521000C2F2004090ED000A30EE410A40F28010E8
:10522000C2F2004090ED001A00EE013A40F2B430B4
:10523000C2F2000080ED003A2CE042F20830C2F2E7
:10524000000090ED000A42F2D020C2F2000090ED82
:10525000001A30EE410A40F28810C2F2004090ED90
:10526000002A42F28820C2F2004090ED003A33EE6C
:10527000411A40F2C800C2F2000090ED003A21EE5F
:10528000031A00EE021A40F2B430C2F2000080EDC0
:10529000001AFFE740F20020C2F200000078052863
:1052A0002FD0FFE740F20020C2F200000078032870
:1052B00027D0FFE740F20020C2F20000007800286B
:1052C0001FD0FFE742F20830C2F2000090ED000A62
:1052D00042F2D020C2F2000090ED001A30EE410AF6
:1052E00040F2CC00C2F2000090ED001A42F2B4206D
:1052F000C2F2000090ED002A00EE012A80ED002AA3
:10530000FFE742F2B420C2F2000090ED000AB5EED1
:10531000400AF1EE10FA07DAFFE742F2B420C2F2D7
:10532000000000210160FFE742F2B420C2F2000059
:1053300090ED000A9FED351AB4EE410AF1EE10FA35
:1053400009DDFFE742F2B420C2F200000021C4F2FE
:10535000F0210160FFE742F2D020C2F200000068B5
:1053600042F28821C2F20041086040F2B430C2F239
:10537000000090ED000A9FED261AB4EE410AF1EE0E
:1053800010FA09DDFFE740F2B430C2F2000000215C
:10539000C4F28C310160FFE7FFE741F25050C2F2E6
:1053A000004090ED000A21F0B1F842F2D020C2F2A4
:1053B000000090ED001A81EE000A80ED000A40F630
:1053C000B420C2F2004090ED000AB2EE041AB4EE2E
:1053D000410AF1EE10FA0DDAFFE741F62810C2F2A9
:1053E000000090ED000AB7EE001A30EE010A80EDE1
:1053F000000A06E041F62810C2F200000021016018
:10540000FFE75AB0BDE8F08700007A440000F042A0
:1054100000008C43CDCCCC3D0000E1440000B443FF
:105420002DE9F043D7B042F64C20C2F2004090ED97
:10543000000A42F69020C2F200004D9021F008FED2
:105440004D98416842F65C22C2F20002116042F6B9
:10545000A821C2F2000191ED000A42F66821C2F2D1
:10546000004108464C924B9121F0F2FD4B98416867
:1054700042F65422C2F20042116041F67011C2F2AB
:10548000000191ED000A41F67411C2F200010846D4
:105490004A92499121F0DCFD4998416841F6581241
:1054A000C2F20002116041F25861C2F2004191ED76
:1054B000000A41F25C61C2F20041084648924791FD
:1054C00021F0C6FD4798416841F24062C2F20042B5
:1054D00011604C9991ED000A469221F017F841F6BF
:1054E0002010C2F2000080ED000A4A9991ED000AF6
:1054F000459021F00BF841F2BC50C2F2004080ED23
:10550000000A4C9991ED000A449021F063FB42F6A9
:105510001C20C2F2000080ED000A4A9991ED000AB9
:10552000439021F057FB42F6D410C2F2004080EDC8
:10553000000A42F28021C2F2004191ED000A459A30
:1055400092ED001A41F24853C2F2004393ED002A53
:10555000B0EE003A82EE032A10EE012A43F2F01C6C
:10556000C2F2000C8CED002A91ED000ADDF80CE18E
:105570009EED001A20EE010A43F6F404C2F2034441
:1055800084ED000A93ED000A80EE030A91ED001A03
:10559000449B93ED002A01EE020A43F2F415C2F295
:1055A000000585ED000A91ED000A90ED001A20EE4D
:1055B000010A43F6F800C2F2034080ED000A95EDBF
:1055C000000A9CED001A30EE410A90ED001A94EDAD
:1055D000002A31EE421A21EE011A00EE001AB0EE56
:1055E000410A42918DED413ACDF800C13F943E957C
:1055F0003D9017F015F942F2F420C2F2000080ED60
:10560000000A42F2D821C2F2000191ED000A30EE08
:10561000000A3E9A92ED001A409B93ED002A31EE6B
:10562000421A20EE010A40F6802CC2F2004C8CEDAA
:10563000000A91ED000A30EE000ADDF8F4E09EED7C
:10564000001A3F9C94ED002A31EE421A20EE010A26
:1056500040F2EC15C2F2000585ED000A90ED000A5B
:1056600020EE000A40F6A820C2F2004080ED000AB9
:1056700095ED000A9CED001A20EE002A01EE012AA9
:1056800090ED001A01EE412A8DED3C0AB0EE420A7F
:105690003B91CDF8E8C0399017F0C2F89DED3C1A67
:1056A00031EE000AB7EEC00A3A9890ED002A399917
:1056B00091ED003A32EE032AB7EEC21A26F0A0FDB1
:1056C00030EE000BB7EEC00B42F6A020C2F2000095
:1056D00080ED000A3F9991ED000A3D9A92ED001A83
:1056E00030EE410A3B9B93ED001A90ED002A8DEDC0
:1056F000380AB0EE420A37908DED361A21F06AFA78
:105700009DED381A9DED362A02EE001AB7EEC10A59
:10571000409890ED001A3E9991ED002A31EE421A20
:105720003B9A92ED002A379B93ED003A8DED340BB6
:10573000B0EE430A8DED331A8DED322A20F0E6FEED
:105740009DED331A9DED322A02EE001AB7EEC11A12
:105750009DED340B26F054FDB7EEC00B42F6502001
:10576000C2F2004080ED000A379991ED000A90EDF9
:10577000001A30EE410A319021F02CFA42F6202036
:10578000C2F2000080ED000A409991ED000A3B9AB8
:1057900092ED001A379B93ED002A8DED300AB0EEA2
:1057A000420A2F908DED2E1A20F0B0FE9DED301A9A
:1057B0009DED2E2A02EE001A43F6DC00C2F20340F1
:1057C00080ED001A3F9991ED000A3B9A92ED001A84
:1057D000379B93ED002A8DED2D0AB0EE420A2C90F6
:1057E0008DED2B1A21F0F6F99DED2D1A9DED2B2A4A
:1057F00002EE001A43F22020C2F2000080ED001AEF
:1058000090ED000AB7EEC00A2C9991ED001AB7EEA0
:10581000C11A2A9026F0F4FCB7EEC00B42F64420E1
:10582000C2F2004080ED000A2C9991ED000A2A9AFC
:1058300092ED001A21EE011A00EE001AB0EE410AB4
:10584000299016F0EDFF42F2D020C2F2000080ED68
:10585000000A429991ED000A4C9A92ED001A379B8A
:1058600093ED002A31EE421A8DED280AB0EE410A7E
:10587000279021F0AFF99DED281A21EE000A31980A
:1058800090ED001A8DED260AB0EE410A21F0A2F942
:105890009DED261A21EE000A2F9890ED001A80EE59
:1058A000010A489991ED001A429A92ED002A319B23
:1058B00093ED003ADDF828C19CED004A33EE443AFE
:1058C0008DED250AB0EE430A8DED241A8DED232AC5
:1058D00021F080F99DED231A21EE000A379890ED12
:1058E000001A8DED220AB0EE410A21F073F99DED08
:1058F000221A21EE000A2F9890ED001A80EE010A7C
:10590000469991ED001A20EE010A9DED251A9DEDB4
:10591000242A01EE020A41F28462C2F2004282EDC0
:10592000000A429B93ED000ADDF830C19CED001A9D
:10593000DDF8DCE09EED002A31EE421A8DED210A01
:10594000B0EE410A209221F045F99DED211A21EE99
:10595000000A319890ED001A8DED1F0AB0EE410A51
:1059600020F0D4FD9DED1F1A21EE000A2F9890ED36
:10597000001A80EE010A489991ED001A20EE010A02
:10598000429A92ED001A319B93ED002ADDF828C16E
:105990009CED003A32EE432A8DED1E0AB0EE420A2B
:1059A0008DED1D1A21F016F99DED1D1A21EE000A4C
:1059B000379890ED001A8DED1C0AB0EE410A20F0E8
:1059C000A5FD9DED1C1A21EE000A2F9890ED001AFE
:1059D00080EE010A469991ED001A9DED1E2A00EE17
:1059E000412A41F68C12C2F2000282ED002A429B4B
:1059F00093ED000ADDF830C19CED001ADDF8DCE023
:105A00009EED002A31EE421A8DED1B0AB0EE410ADE
:105A10001A9221F0DFF89DED1B1A21EE000A319851
:105A200090ED001A8DED190AB0EE410A21F0D2F87E
:105A30009DED191A21EE000A2F9890ED001A80EEC4
:105A4000010A41F2E451C2F2004191ED001A42997B
:105A500091ED002A319A92ED003A4A9B93ED004A6B
:105A600033EE443A8DED180AB0EE430A8DED171A65
:105A70008DED162A21F0AEF89DED161A21EE000AE2
:105A8000379890ED001A8DED150AB0EE410A21F01D
:105A9000A1F89DED151A21EE000A2F9890ED001A3D
:105AA00080EE010A41F63011C2F2000191ED001AB8
:105AB00020EE010A9DED181A9DED172A01EE020A4B
:105AC00041F2E851C2F2004181ED000A41F6441171
:105AD000C2F200010A6842F28423C2F200431A6053
